:020000040800F2
:100000000000012029230008C1220008C3220008A3
:10001000C5220008C7220008C9220008000000000D
:10002000000000000000000000000000CB220008DB
:10003000CD22000800000000CF220008D1220008D5
:100040007923000879230008792300087923000820
:100050007923000879230008792300087923000810
:100060007923000879230008792300087923000800
:1000700079230008792300087923000879230008F0
:1000800079230008792300087923000879230008E0
:1000900079230008792300087923000879230008D0
:1000A00079230008792300087923000879230008C0
:1000B00079230008000000000000000079230008F8
:1000C00079230008000000000000000079230008E8
:1000D00000000000792300087923000800000000D8
:1000E00079230008792300080000000000000000C8
:1000F0000000000000000000000000000000000000
:10010000000000000000000000000000792300084B
:100110000000000000000000792300087923000897
:10012000792300087923000879230008792300083F
:10013000792300080000000000000000000000001B
:10014000792300087923000879230008792300081F
:10015000792300087923000879230008792300080F
:1001600079230008792300087923000800000000A3
:100170007923000879230008000000000000000037
:0C01800079230008792300087923000887
:10018C0010B5054C237833B9044B13B10448AFF3C5
:10019C0000800123237010BD0C0000200000000023
:1001AC00C423000808B5034B1BB103490348AFF344
:1001BC00008008BD0000000010000020C4230008CF
:1001CC00034613F8012B002AFBD1181A013870478B
:1001DC0053B94AB9002908BF00281CBF4FF0FF31A2
:1001EC004FF0FF3000F07AB9ADF1080C6DE904CE98
:1001FC0000F006F8DDF804E0DDE9022304B07047F6
:10020C002DE9F0478C460D460446089E002B51D133
:10021C008A4217466DD9B2FA82FEBEF1000F0BD09E
:10022C00CEF1200C01FA0EF520FA0CFC02FA0EF7B6
:10023C004CEA050C00FA0EF44FEA174A250CBCFBED
:10024C00FAF81FFA87F90AFB18CC45EA0C4508FBAB
:10025C0009F3AB420AD9ED1908F1FF3280F0238182
:10026C00AB4240F22081A8F102083D44ED1AA4B241
:10027C00B5FBFAF00AFB105544EA054400FB09F9FA
:10028C00A14509D9E41900F1FF3380F00A81A14599
:10029C0040F2078102383C44A4EB090440EA0840D0
:1002AC000021002E61D024FA0EF400233460736018
:1002BC00BDE8F0878B4207D9002E54D0002186E888
:1002CC0021000846BDE8F087B3FA83F1002940F01D
:1002DC008E80AB4202D3824200F2FA80841A65EB24
:1002EC0003050120AC46002E3FD086E81010BDE877
:1002FC00F08712B90127B7FBF2F7B7FA87FEBEF108
:10030C00000F34D1EB1B3A0C1FFA87FC0121B3FB15
:10031C00F2F8250C02FB183345EA03450CFB08F3F5
:10032C00AB4207D9ED1908F1FF3002D2AB4200F213
:10033C00D1808046ED1AA3B2B5FBF2F002FB10554A
:10034C0043EA05440CFB00FCA44507D9E41900F171
:10035C00FF3302D2A44500F2B8801846A4EB0C047B
:10036C0040EA08409DE731463046BDE8F087CEF1C3
:10037C00200405FA0EF307FA0EF720FA04F83A0CEB
:10038C0025FA04F448EA0308B4FBF2F14FEA1845E5
:10039C0002FB11441FFA87FC45EA044501FB0CF3F0
:1003AC00AB4200FA0EF409D9ED1901F1FF3080F0DF
:1003BC008A80AB4240F2878002393D44EB1A1FFA27
:1003CC0088F5B3FBF2F002FB103345EA034500FB62
:1003DC000CF3AB4207D9ED1900F1FF386FD2AB42E9
:1003EC006DD902383D44EB1A40EA01418FE7C1F167
:1003FC00200722FA07F88B4005FA01F448EA0303B8
:10040C0020FA07FE4FEA134CFD404EEA040EB5FBF2
:10041C00FCF94FEA1E440CFB19551FFA83F844EA09
:10042C00054509FB08F4AC4202FA01F200FA01FAA4
:10043C0008D9ED1809F1FF3043D2AC4241D9A9F1EA
:10044C0002091D442D1B1FFA8EFEB5FBFCF00CFBA4
:10045C0010554EEA054400FB08F8A04507D9E418EE
:10046C0000F1FF3529D2A04527D902381C4440EAB7
:10047C000940A4EB0804A0FB02894C45C6464D4636
:10048C0015D312D056B1BAEB0E0364EB050404FA83
:10049C0007F7CB401F43CC40376074600021BDE8A8
:1004AC00F0871846F8E69046E0E6C245EAD2B8EB8B
:1004BC00020E69EB03050138E4E72846D7E740460E
:1004CC0091E78146BEE7014678E702383C4445E7B0
:1004DC00084608E7A8F102083D442BE7704700BF27
:1004EC0038B50A4B054618684FF47A73B0FBF3F035
:1004FC0000F080F8044638B9024629464FF0FF3028
:10050C0000F044F8204638BD012038BD080000201A
:10051C0010B5032000F028F80020FFF7E1FF044697
:10052C0018B901F00DFE204610BD0124FBE70000B8
:10053C00024A136801331360704700BF300000207B
:10054C00014B1868704700BF3000002038B50446D6
:10055C00FFF7F6FF631C054618BF0134FFF7F0FFE9
:10056C00401B8442FAD838BD074AD36823F4E063B1
:10057C001B041B0C43F0BF63000243F4003300F474
:10058C00E0600343D360704700ED00E0174B30B5DB
:10059C00DC68C4F30224C4F10703251D042B28BF17
:1005AC000423062D4FF0010505FA03F303F1FF3385
:1005BC008CBF033C00241940A14005FA04F4013C13
:1005CC002240002842EA01024FEA0212AFBF00F1BA
:1005DC00604000F00F00064BD2B2A5BF00F56140A1
:1005EC00D2B21A5480F8002330BD00BF00ED00E0F9
:1005FC0014ED00E00138B0F1807F0AD2064B074AB7
:10060C005860F02182F823100020072298601A60AD
:10061C0070470120704700BF10E000E000ED00E0E3
:10062C00044B1A6804280CBF42F0040222F00402A6
:10063C001A60704710E000E0704708B5FFF7FCFF48
:10064C0008BD00002DE9F04F85B00B68DFF858812C
:10065C00534A01934FF00F090023019CDC4002D157
:10066C0005B0BDE8F08F012404FA03FA019C14EAEA
:10067C000A0500F08F804C6824F0100BBBF1020FC0
:10068C0011D1DF0800EB870703F0070E3E6A4FEA33
:10069C008E0E09FA0EFC26EA0C0C0E6906FA0EF602
:1006AC0046EA0C063E624FEA430C0327066807FA3B
:1006BC000CF7FF4304F0030E3E400EFA0CFE0BF158
:1006CC00FF3B4EEA0606BBF1010F066011D88668A7
:1006DC0006EA070BCE6806FA0CFE4EEA0B0686609D
:1006EC00466826EA0A0AC4F300169E4046EA0A0641
:1006FC004660C66837408E6806FA0CF63743E6004B
:10070C00C76047D5D8F8606046F00106C8F860604D
:10071C00D8F8606023F0030707F1804706F0010664
:10072C0007F58037039603F0030E039EBE684FEA6D
:10073C008E0E09FA0EFCB0F1904F26EA0C0C2BD061
:10074C00184EB0422AD006F58066B04214BF072678
:10075C00022606FA0EF646EA0C06BE601668EF4351
:10076C0014F4803F0CBF3E402E431660566814F4C0
:10077C00003F0CBF3E402E435660966814F4801F19
:10078C000CBF3E402E439660D668A40254BF3E4038
:10079C002E43D660013360E70026DAE70126D8E75E
:1007AC000004014000040048001002400AB18161BD
:1007BC0070478162704703689A69910744BF0022B1
:1007CC009A629A69D2075EBF9A6942F001029A61F5
:1007DC00704730B5039C05682343640D04F48064B2
:1007EC0044F07F7444F458346868C1F3090144F44C
:1007FC007F74194344F0030441EA024120EA0404E3
:10080C002143696030BD2DE9F041069F04468846BE
:10081C0016461D462268936938EA03030CBF012370
:10082C000023B34202D00020BDE8F0816B1CF2D053
:10083C00FFF786FEC01B854201D3002DEAD1636C05
:10084C0043F020036364202384F84130002384F8B0
:10085C00423084F840300120BDE8F081036870B567
:10086C000446986910F010000D46164616D170BD5E
:10087C00691C14D0FFF764FE801B854200D36DB950
:10088C00636C43F020036364202384F8413000231D
:10089C0084F8423084F84030012070BD2368996997
:1008AC008A06E5D510222025DA612046DD61FFF7A6
:1008BC0082FF2268536823F0FF7323F48B3323F4F5
:1008CC00FF7323F001035360636C43F00403636410
:1008DC0084F84150DBE770B504460D461646236894
:1008EC009B699B0701D5002070BD324629462046E6
:1008FC00FFF7B4FFA0B96A1CF1D0FFF721FE801BF3
:10090C00854201D3002DEAD1636C43F0200363646C
:10091C00202384F84130002384F8423084F840309E
:10092C00012070BD70B504460D46164623689B69C0
:10093C009B0601D5002070BD324629462046FFF7A4
:10094C008DFF90B9FFF7FCFD801B854201D3002D74
:10095C00ECD1636C43F020036364202384F84130B2
:10096C00002384F8423084F84030012070BD70B50B
:10097C0004460D46164623689B695B070ED4324627
:10098C0029462046FFF76AFFF0B923689A69910659
:10099C001CD59A69520703D5228D0AB1002070BD6F
:1009AC002021D9615A6822F0FF7222F48B3222F492
:1009BC00FF7222F001025A600023636484F8411034
:1009CC0084F8423084F84030012070BDFFF7B8FD48
:1009DC00801B854201D3002DCDD1636C43F02003E5
:1009EC006364202384F841300023EBE710B5044600
:1009FC0000284AD090F8413003F0FF021BB980F870
:100A0C00402001F0E3FB242384F841302368E168A3
:100A1C001A6822F001021A60626822F070621A6190
:100A2C009A68012922F400429A60A26824D142F407
:100A3C0000429A605A68616942F0007242F40042C6
:100A4C005A60DA6822F40042DA6022690A43A1692A
:100A5C0042EA0122DA60216AE2690A431A601A68E2
:100A6C0042F001021A6000202023606484F84130B7
:100A7C00206384F8420010BD42F4044202299A60BB
:100A8C0004BF4FF400625A60D4E7012010BD00008F
:100A9C002DE9F743984690F84130202B04460E463A
:100AAC00914640F0848090F84030012B7FD0012794
:100ABC0080F84070FFF744FD1923054600903A4634
:100ACC004FF400412046FFF79EFE18B1012003B001
:100ADC00BDE8F083212384F84130102384F84230A0
:100AEC006064A4F82A80638DC4F824909BB2FF2B19
:100AFC006063304B26D9FF22228500934FF0807320
:100B0C0031462046FFF765FE638D0A999BB22A4653
:100B1C002046FBB9FFF706FF0028D7D12368202118
:100B2C00D9615A6822F0FF7222F48B3222F4FF72E0
:100B3C0022F001025A6084F8411084F8400084F8D5
:100B4C004200C4E7628D009392B222854FF000738D
:100B5C00D2B2D5E7FFF7BFFE0028B7D1636A22688F
:100B6C0013F8011B91626362638D228D013B9BB272
:100B7C006385638D013A92B29BB22285002BC3D060
:100B8C00002AC1D100950A9B80212046FFF73BFE2D
:100B9C0000289BD1638D9BB2FF2B03D9FF222285AA
:100BAC000090ABE7628D009092B22285CEE70220D6
:100BBC008DE700BF002000802DE9F743984690F8A0
:100BCC004130202B04460E46914640F0868090F82A
:100BDC004030012B00F08180012780F84070FFF736
:100BEC00AFFC1923054600903A464FF400412046CD
:100BFC00FFF709FE18B1012003B0BDE8F0832223F2
:100C0C0084F84130102384F842306064A4F82A80C0
:100C1C00638DC4F824909BB2FF2B6063304B26D9B4
:100C2C00FF22228500934FF0807331462046FFF758
:100C3C00D0FD638D0A999BB22A462046FBB9FFF77B
:100C4C0071FE0028D7D123682021D9615A6822F07F
:100C5C00FF7222F48B3222F4FF7222F001025A60EE
:100C6C0084F8411084F8400084F84200C4E7628D97
:100C7C00009392B222854FF00073D2B2D5E7FFF702
:100C8C0076FE0028B7D12268636A526A1A70636ACA
:100C9C00228D01336362638D013B9BB26385638D4F
:100CAC00013A92B29BB22285002BC2D0002AC0D14D
:100CBC0000950A9B80212046FFF7A5FD00289AD1BC
:100CCC00638D9BB2FF2B03D9FF2222850090AAE7EC
:100CDC00628D009092B22285CDE702208CE700BF96
:100CEC000024008090F84120D2B2202A10B51DD1EA
:100CFC0090F84030012B19D0242380F84130036840
:100D0C001C6824F001041C601C6824F480541C60D2
:100D1C001C6821431960196841F001011960002316
:100D2C0080F8412080F84030184610BD022010BDDC
:100D3C0010B590F84140E4B2202C1CD190F8403012
:100D4C00012B18D0242380F8413003681A6822F054
:100D5C0001021A601A6822F4706242EA01211960D9
:100D6C001A6842F001021A60002380F8414080F8B2
:100D7C004030184610BD022010BD0000024A136816
:100D8C0043F480731360704700700040024B186886
:100D9C0000F4C060704700BF00700040174B1A6829
:100DAC00B0F5007F02F4C0621CD1B2F5007F15D003
:100DBC001A6822F4C06242F400721A60104A116878
:100DCC0032224A430F49B2FBF1F2194601325869FB
:100DDC00400500D522B94B695B050DD40020704746
:100DEC00013AF4E7B2F5806F1FBF1A6822F4C062B3
:100DFC0042F480621A60F1E70320704700700040F3
:100E0C000800002040420F0037B51E4DAB6DDA00D4
:100E1C00044618D5FFF7BAFFB0F5007F23D1802C1C
:100E2C0029D9A02C8CBF02200120174A136823F06B
:100E3C00070303431360136803F00703181A18BF62
:100E4C00012003B030BDAB6D43F08053AB65AB6D8F
:100E5C0003F080530193019BFFF798FFAB6D23F0D8
:100E6C008053AB65D8E7802C07D808D0A4F1700369
:100E7C0058425841D9E70020D7E70320D5E7022094
:100E8C00D3E700BF0010024000200240254B9A68B7
:100E9C00D96812F00C0205D00C2A15D101F003010F
:100EAC00012918D119682048090755BFD3F89410A7
:100EBC001968C1F30321C1F3031150F8210082B367
:100ECC000C2A09D000207047042A29D0082A174878
:100EDC0018BF002070470020D968DA6801F00301C0
:100EEC00C2F30212022902F1010205D0032912D029
:100EFC00D968C1F3062103E0D9680D48C1F3062176
:100F0C00DB68B0FBF2F0C3F34163013348435B0091
:100F1C00B0FBF3F07047D9680448C1F30621EFE742
:100F2C0003487047001002400824000800127A00A1
:100F3C000024F4002DE9F743054608B9012046E0EA
:100F4C00A84C0368A668E768DB0606F00C0607F0F9
:100F5C00030772D51EB10C2E51D1012F4FD123682E
:100F6C00980702D5AB69002BE8D02368286A1907CB
:100F7C0056BFD4F8943023681B0903F0F003834266
:100F8C0028D2FFF741FF0028D8D1236843F008038B
:100F9C00236023682A6A23F0F003134323606368F9
:100FAC00EA6923F47F4343EA02236360FFF76EFF91
:100FBC00A3688D4AC3F30313D35C03F01F03D8401B
:100FCC008A4B18600020FFF78BFA002835D003B04D
:100FDC00BDE8F083236843F008032360236823F003
:100FEC00F003034323606368EA6923F47F4343EA15
:100FFC0002236360FFF708FF0028D7D09EE7AB6998
:10100C00002B3AD0236843F001032360FFF798FAD2
:10101C00804623689A0728D5236843F00803236089
:10102C0023682A6A23F0F003134323606368EA6998
:10103C0023F47F4343EA022363602B68D8072DD443
:10104C002B6899076BD42B68180700F1A0802B68CC
:10105C00590700F1CD802B68990600F13681AB6AF7
:10106C00002B40F05C810020B1E7FFF769FAA0EBA0
:10107C0008000228CDD90320A9E7236823F0010337
:10108C002360FFF75DFA804623689B07D5D5FFF7F1
:10109C0057FAA0EB08000228F6D9ECE7082E03D08B
:1010AC000C2E08D1032F06D123689A03C8D56B6880
:1010BC00002BC5D142E76B68B3F5803F10D1236894
:1010CC0043F480332360FFF73BFA804623689B038D
:1010DC00B6D4FFF735FAA0EB08006428F6D9CAE7B6
:1010EC00B3F5A02F04D1236843F480232360E6E7F3
:1010FC00226822F480322260226822F4802222604C
:10110C00002BE0D1FFF71CFA80462368980397D593
:10111C00FFF716FAA0EB08006428F6D9ABE7042E0B
:10112C0003D00C2E10D1022F0ED12368590503D5F4
:10113C00EB68002B3FF402AF63682A6923F0F85385
:10114C0043EA026363607EE7EB687BB1236843F498
:10115C0080732360FFF7F4F9074623685A05EBD434
:10116C00FFF7EEF9C01B0228F7D984E7236823F4B4
:10117C0080732360FFF7E4F9074623685B057FF56E
:10118C0062AFFFF7DDF9C01B0228F6D973E76B6974
:10119C009BB1D4F8943043F00103C4F89430FFF7BA
:1011AC00CFF90746D4F894309A073FF550AFFFF7C4
:1011BC00C7F9C01B0228F5D95DE7D4F8943023F0A9
:1011CC000103C4F89430FFF7BBF90746D4F8943008
:1011DC009B077FF53CAFFFF7B3F9C01B0228F5D98D
:1011EC0049E700BF00100240ED2300080800002072
:1011FC00A36DD80029D4A36D43F08053A365A36DD0
:10120C0003F080530193019B4FF00108714F3B6831
:10121C00D9051DD5AB68012B2BD1D4F8903043F0F8
:10122C000103C4F89030FFF78BF941F28839074677
:10123C00D4F890309B0742D5B8F1000F3FF40BAFB8
:10124C00A36D23F08053A36505E74FF00008DDE79D
:10125C003B6843F480733B60FFF772F981463B684F
:10126C00DA05D7D4FFF76CF9A0EB09000228F6D900
:10127C0001E7052B06D1D4F8903043F00403C4F8F1
:10128C009030CAE7D4F8902022F00102C4F89020E4
:10129C00D4F8902022F00402C4F89020002BC2D184
:1012AC00FFF74EF941F288390746D4F89030980789
:1012BC00C2D5FFF745F9C01B4845F6D9DBE6FFF769
:1012CC003FF9C01B4845B3D9D5E66B6A9BB1D4F83E
:1012DC00983043F00103C4F89830FFF731F9074612
:1012EC00D4F898309A073FF5BAAEFFF729F9C01B2E
:1012FC000228F5D9BFE6D4F8983023F00103C4F8DE
:10130C009830FFF71DF90746D4F898309B077FF506
:10131C00A6AEFFF715F9C01B0228F5D9ABE60C2ECB
:10132C003FF40CAE022B236823F08073236036D17C
:10133C00FFF706F90646236898012AD4AB6B6A6B53
:10134C00DB0643EA0223EA6A13432A6B013A43EAB7
:10135C000213EA6B5208013A43EA42532A6C5208D0
:10136C00013A43EA4263E360236843F080732360ED
:10137C00E36843F08073E360FFF7E2F80546236807
:10138C0099013FF570AEFFF7DBF8401B0228F6D948
:10139C0071E6FFF7D5F8801B0228CCD96BE62368E1
:1013AC001A015EBFE36823F00303E360E36823F0F4
:1013BC00887323F48033E360FFF7C2F80546236893
:1013CC009B017FF550AEFFF7BBF8401B0228F6D906
:1013DC0051E600BF007000402DE9F0410E46044676
:1013EC0010B90120BDE8F081404A136803F00703EF
:1013FC008B4229D32368D90731D421688A075BD45F
:10140C003A4A136803F007039E425DD311F0040FB0
:10141C00374D64D10B0706D5AB68226923F46053B2
:10142C0043EAC203AB60FFF731FDAB68314AC3F34B
:10143C000313BDE8F041D35C03F01F03D8402E4BDF
:10144C0018600020FFF74CB8136823F007030B4318
:10145C001360136803F007039942C2D1CAE76268AC
:10146C00234D032A2B681BD113F0007FB9D0AB6836
:10147C0023F003031343AB60FFF762F841F28838A3
:10148C000746AB68626803F00C03B3EB820FB4D071
:10149C00FFF756F8C01B4045F3D90320BDE8F08197
:1014AC00022A02D113F4003FE0E712B913F0020F45
:1014BC00DCE713F4806FD9E70D4AA068936823F03A
:1014CC00F003034393609BE7136823F00703334354
:1014DC001360136803F007039E4282D196E7AB6852
:1014EC00E26823F4E0631343AB6093E7002002400F
:1014FC0000100240ED23000808000020014B186882
:10150C00704700BF08000020054B064A9B68C3F3D8
:10151C000223D35C044A106803F01F03D8407047C1
:10152C0000100240FD23000808000020054B064A6D
:10153C009B68C3F3C223D35C044A106803F01F03F7
:10154C00D840704700100240FD230008080000201E
:10155C00F8B5444BDA6812F0030F05460E461C46EC
:10156C00006839D0DA6802F0030282424BD1002ABB
:10157C0049D0DB686A68C3F302130133934242D14A
:10158C00236823F080632360FEF7DAFF07462368A5
:10159C001A0141D4AF68002E45D0012E4FD12269DB
:1015AC00286922F4C002400822F4FE42013842EAC3
:1015BC00072242EA40522261236843F08063236091
:1015CC00FEF7BEFF064623681B0145D52369AA69B1
:1015DC00134323610020F8BD022810D0032814D037
:1015EC00012810D11B689F07F5D5E3686A6823F0C2
:1015FC007303013A184340EA0210E060C0E71B682D
:10160C0013F4806FF1D10120F8BD1A689103ECD46A
:10161C001B6813F4802FF5E7FEF792FFC01B02281E
:10162C00B5D90320F8BD2269E96822F07842C906D1
:10163C0041EA072322F4FE4213432361BCE72369EA
:10164C00686923F0C063400823F4FE43013843EA81
:10165C00072343EA4063F0E7FEF772FF801B022882
:10166C00B1D9DEE7001002402DE9F743056815F407
:10167C00006504460ED0C16BB1F5000F53D0B1F527
:10168C00400F55D000295ED10430FFF761FF0546AD
:10169C0000284DD023689E0363D5934EB36DD800BC
:1016AC0040F116810027DFF84482D8F8003043F46B
:1016BC008073C8F80030FEF743FF8146D8F800303D
:1016CC00D90542D5002D47D1D6F8903013F440738C
:1016DC0014D0226D934211D0D6F89030D6F89020C9
:1016EC0042F48032C6F89020D6F8902023F4407350
:1016FC0022F48032C6F89020C6F89030DA0709D56B
:10170C00FEF71EFF41F288398046D6F890309B07D1
:10171C0040F1C080D6F89030226D23F4407313430F
:10172C00C6F8903018E0704AD36843F48033D36025
:10173C006D4AE16BD2F8883023F440030B43C2F8B6
:10174C0088300025A6E70125A4E7FEF7F9FEA0EBFB
:10175C0009000228B2D903251FB1B36D23F08053C1
:10176C00B3652368DF0708D55F49206AD1F8882064
:10177C0022F003020243C1F888209E0708D55A497B
:10178C00606AD1F8882022F00C020243C1F888204C
:10179C00980608D55449A06AD1F8882022F44062F2
:1017AC000243C1F88820990508D54F49606BD1F8E0
:1017BC00882022F440220243C1F888205A0508D51B
:1017CC004949A06BD1F8882022F440120243C1F899
:1017DC0088205F0608D54449E06AD1F8882022F4B5
:1017EC0040520243C1F88820DE0508D53E49206BE3
:1017FC00D1F8882022F440320243C1F888209804A2
:10180C000FD5394A216CD2F8883023F040630B4352
:10181C00B1F1006FC2F8883044D1D36843F480131F
:10182C00D360236859030FD52F4A616CD2F88830E6
:10183C0023F040630B43B1F1006FC2F888303CD108
:10184C00D36843F48013D36023685A0412D5264915
:10185C00A26CD1F8883023F040531343B2F1805F6F
:10186C00C1F8883006D10221201DFFF771FE002837
:10187C0018BF054623681B0408D51B4AE16CD2F837
:10188C00883023F080430B43C2F88830284603B0DD
:10189C00BDE8F083FEF754FEA0EB080048457FF648
:1018AC0034AF58E7B1F1806FBBD10121201DFFF798
:1018BC004FFE002818BF0546B3E7B1F1806FC3D1C6
:1018CC000121201DFFF744FE002818BF0546BBE789
:1018DC00B36D43F08053B365B36D03F08053019344
:1018EC00019B0127DFE600BF0010024000700040A2
:1018FC00024A136843F0040313607047001002405F
:10190C000268C169F8B50446836800691568034329
:10191C006069034382480B432840034313605368B8
:10192C00E06823F44053034353607E4BA0699A4212
:10193C001CBF236A1843936823F4306303439360FA
:10194C00794B9A4214D103F55843784AD3F888302E
:10195C0003F00303B1F5004FD35C40F0AA80082BD1
:10196C0020D8DFE803F0778F921F9B1F1F1F9E006C
:10197C006F4B9A4207D103F5E6336E4AD3F88830A1
:10198C0003F00C03E6E7674B9A4240F0C28003F584
:10199C00C833D3F8885005F44065B5F5806F2AD06C
:1019AC0006D815B301220023236663661046F8BDE2
:1019BC00B5F5006F06D0B5F5406FF3D14FF400408C
:1019CC00082501E05C480225626802EB4203834271
:1019DC00E8D8B0EB023FE5D8082D38D8DFE805F0A1
:1019EC000F3726372E3737373100FFF78DFD00289C
:1019FC00EAD10246D7E7FFF749FA0425F7E7FFF7E4
:101A0C0083FD62684FF4807156080027E1FB006784
:101A1C00002330463946FEF7DBFB0022474BA0F58E
:101A2C0040719942BED82368D860BCE74448550839
:101A3C0000230021401941F10001ECE7FFF726FAE1
:101A4C00DFE750080021002310F50000F3E7012226
:101A5C000020E3E7FFF758FD61684A0802EB4003FA
:101A6C00B3FBF1F39BB20022A3F110004FF6EF7120
:101A7C00884297D823F00F012068C3F342030B432D
:101A8C00C36090E7FFF752FDE6E76068430803F197
:101A9C00F47303F59043B3FBF0F3E3E7FFF7F6F9C8
:101AAC00DAE76068430803F58033F4E7012200238A
:101ABC00DAE7082B30D8DFE803F005181B2F242FAA
:101ACC002F2F2700FFF720FD626800EB5203B3FBBA
:101ADC00F2F39BB20022A3F110004FF6EF71884293
:101AEC003FF660AF2168CB605DE7FFF71FFDEBE7CA
:101AFC006068430803F5740303F51053B3FBF0F36C
:101B0C00E7E7FFF7C3F9DFE76068430803F5004335
:101B1C00F4E7B1F5004FC9D001220023DBE700BF89
:101B2C00F369FFEF0080004000380140DC2300081F
:101B3C0000440040E02300080024F400FFFC0F00E8
:101B4C00000024F4436ADA0710B506D50168846AEC
:101B5C004A6822F4003222434A609C0706D5016889
:101B6C00C46A4A6822F4803222434A60590706D577
:101B7C000168046B4A6822F4802222434A601A07E7
:101B8C0006D50168446B4A6822F4004222434A603D
:101B9C00DC0606D50168846B8A6822F480522243E5
:101BAC008A60990606D50168C46B8A6822F40052D3
:101BBC0022438A605A060FD50168046C4A6822F4E5
:101BCC0080122243B4F5801F4A6005D14A68446CE8
:101BDC0022F4C00222434A601B0606D50268816CBF
:101BEC00536823F400230B43536010BD2DE9F041DF
:101BFC00069D04460F46164698462168CA6937EA80
:101C0C0002030CBF01220022B24202D00020BDE828
:101C1C00F0816B1CF2D09DB923681A6822F4D07243
:101C2C001A609A6822F001029A60202384F87130BD
:101C3C0084F87230002384F870300320BDE8F08102
:101C4C00FEF77EFCA0EB08008542D6D2E4E72DE936
:101C5C00F3411F4690F87130202B04460D469046F8
:101C6C004AD1002946D0002A44D090F87030012B7C
:101C7C0042D0012380F8703000234367212380F881
:101C8C007130FEF75DFCA4F850800646A4F8528033
:101C9C00B4F85220009792B2334652B940212046F4
:101CAC00FFF7A4FF58B9202384F8713084F8700032
:101CBC0006E0002280212046FFF798FF18B1032090
:101CCC0002B0BDE8F081A3682268B3F5805F0DD146
:101CDC0023695BB935F8023BC3F308031385B4F8E9
:101CEC005230013B9BB2A4F85230D1E72B781385CC
:101CFC000135F4E70120E3E70220E1E773B5044680
:101D0C0000264667FEF71CFC23681B681A0705466D
:101D1C0017D423681B685B070AD56FF07E430093CA
:101D2C0000222B464FF480012046FFF75FFFA0B93D
:101D3C002023002084F8713084F8700084F872300D
:101D4C000CE06FF07E430093324603464FF40011D3
:101D5C002046FFF74BFF0028DBD0032002B070BDFC
:101D6C0010B5044660B390F8713003F0FF021BB954
:101D7C0080F8702000F052FA2268242384F8713025
:101D8C00136823F0010313602046FFF7B9FD012807
:101D9C0016D0636A13B12046FFF7D4FE23685A6845
:101DAC0022F490425A609A6822F02A029A601A68C9
:101DBC0042F0010220461A60BDE81040FFF79EBFBA
:101DCC00012010BD1FB50B0A8DF80D30074B8DF897
:101DDC000E1019788DF80C006423009303AA0123CC
:101DEC000348FEF755FE05B05DF804FB0300002028
:101DFC00340000207FB50D4D0D4B04AA642602F86B
:101E0C00080D1978009601232846FEF741FE04AA16
:101E1C00084B32F8044D1978009602232846FEF739
:101E2C00CBFE64BAA4B2204604B070BD34000020CE
:101E3C00030000200200002008B5064B198801435E
:101E4C000120FFF7BFFF0020FFF7D4FFC0F30F10F6
:101E5C0008BD00BF0000002010B54FF4C040FFF7D4
:101E6C00EBFF0446C820FEF771FBE0B210BD00008A
:101E7C002DE9F04F304BDFF8E4B093F800A02F4B76
:101E8C0093F800902E4B93F800802E4B1F782E4B1E
:101E9C000AEB09041E7844443C4487B0054634449C
:101EAC00034628460193FEF78BF9019B5A1B82428D
:101EBC003AD39BF800308DF80BA01C44234B8DF8C3
:101ECC000C901B788DF80830214B8DF80D801B7809
:101EDC008DF809301F4B8DF80E701B788DF80A3079
:101EEC00E44300238DF80F608DF810308DF811301D
:101EFC008DF812308DF813308DF814308DF81530B4
:101F0C008DF816308DF8174002AA1A44E95C11724C
:101F1C000133072BF8D16423102202A90E48FFF7D6
:101F2C0096FE07B0BDE8F08F13F8012B9BF800105C
:101F3C000A448BF80020B4E70500002004000020C0
:101F4C0029000020280000202B0000200700002082
:101F5C002A00002006000020800000202C00002019
:101F6C0010B5ACB0FEF70AFF284AD2F8903023F037
:101F7C001803C2F8903014230693002310220D93FB
:101F8C00602301240E9313920223072206A80894BF
:101F9C000C94109311941294149215931693FEF7BB
:101FAC00C9FF00B1FEE70F230193039003230490B4
:101FBC000590214601A80293FFF70EFA00B1FEE747
:101FCC0043231F902090229017A81793FFF74CFBE8
:101FDC0000B1FEE74FF40070FEF7E0FE044600B1DE
:101FEC00FEE7FFF78BFA4FF47A73B0FBF3F0FEF7D2
:101FFC0001FB0420FEF714FBFFF77AFC2246214676
:10200C004FF0FF30FEF7C2FA2CB010BD00100240AA
:10201C00F0B589B0FEF77CFAFFF7A2FF3F4B4048C2
:10202C00DA6C404C42F00402DA64DA6C02F004021E
:10203C000092009ADA6C42F00102DA64DA6C02F077
:10204C0001020192019ADA6C42F00202DA64DB6C52
:10205C0003F002030293002208210025029B0126B3
:10206C00FEF7A4FB08232E48039303A904960595B9
:10207C000695FEF7E7FA2C48A5604FF4E13384E8A7
:10208C0009000C272046E56025616761A561E561C3
:10209C0025626562FFF764FE00B1FEE7234B24491D
:1020AC0098604FF41652D86018619861D861186224
:1020BC005862184683E806005F61FFF751FE00B1D5
:1020CC00FEE71C4D1C4A1D4BA86028616861A86185
:1020DC00E8612862284685E80C00EE60FEF786FC75
:1020EC00014600B1FEE72846FEF7FCFD014600B1B3
:1020FC00FEE72846FEF71CFE00B1FEE7FFF7ACFE3C
:10210C000546FFF7B5FE6423012229462046FFF75A
:10211C009EFD4FF4FA60FEF719FAEFE7001002404B
:10212C0000040048F800002000440040800000201B
:10213C00003801403400002000540040BB7C70008B
:10214C00214B07B51A6E42F001021A661A6E02F0A4
:10215C0001020092009A9A6D42F080529A659B6D32
:10216C0003F0805301930320019BFEF7FDF900223D
:10217C0011466FF00B00FEF709FA002211466FF0C2
:10218C000A00FEF703FA002211466FF00900FEF771
:10219C00FDF9002211466FF00400FEF7F7F900225A
:1021AC0011466FF00300FEF7F1F9002211466FF0B3
:1021BC000100FEF7EBF9002211464FF0FF30FEF75D
:1021CC00E5F903B05DF804FB001002407FB502682E
:1021DC000F4B9A4218D1C023019312230293002370
:1021EC0003930323049304230DEB03010948059384
:1021FC00FEF728FA084B9A6D42F400129A659B6D13
:10220C0003F400130093009B07B05DF804FB00BFC0
:10221C0000540040000400480010024070B50368F0
:10222C00214A934288B01BD1204B1A6E42F4804253
:10223C001A661B6E03F480430193019B4FF4C06339
:10224C00039302230493002305930323069307238C
:10225C00079303A94FF09040FEF7F4F908B070BD56
:10226C00134A9342FAD1114B9A6D42F400329A659B
:10227C009B6D03F400330293029B0423032403930A
:10228C0002260723002503A94FF0904007930496DC
:10229C0005950694FEF7D6F94FF400430393049684
:1022AC00059506940794D4E70038014000100240CD
:1022BC00004400407047FEE7FEE7FEE7FEE770478C
:1022CC007047704708B5FEF733F9BDE80840FEF7D4
:1022DC00B4B900000F49D1F8883043F47003C1F849
:1022EC0088300D4B1A68002042F001021A60986089
:1022FC001A6822F0A85222F410221A604FF480526D
:10230C00DA601A6822F480221A6098614FF0006338
:10231C008B60704700ED00E000100240DFF834D015
:10232C00002103E00C4B5B58435004310B480C4B21
:10233C0042189A42F6D30B4A02E0002342F8043BBF
:10234C00094B9A42F9D3FFF7C5FF00F011F8FFF7DC
:10235C005FFEFEE70000012048240008000000207A
:10236C000C0000200C00002070010020FEE7000093
:10237C0070B50D4E0D4CA41BA4100025A54209D11F
:10238C000B4E0C4C00F018F8A41BA4100025A54211
:10239C0005D170BD56F8253098470135EEE756F853
:1023AC00253098470135F2E7402400084024000806
:1023BC004024000844240008F8B500BFF8BC08BC51
:1023CC009E467047F8B500BFF8BC08BC9E467047E7
:1023DC00010402080010101004101010021010104C
:1023EC0008000000000000000001020304060708BA
:1023FC00090000000001020304000000A086010097
:10240C00400D0300801A060000350C0040420F00FE
:10241C0080841E0000093D0000127A000024F400A4
:0C242C0000366E010048E801006CDC0284
:08243800D4DDFF7F010000006C
:04244000B1010008DE
:042444008D010008FE
:0C2448008385919001010C7E00093D008D
:0400000508002329A3
:00000001FF
