:020000040800F2
:10000000000001201D300008B52F0008B72F0008A0
:10001000B92F0008BB2F0008BD2F0008000000000A
:10002000000000000000000000000000BF2F0008DA
:10003000C12F000800000000C32F0008C52F0008D2
:100040006D3000086D3000086D3000086D3000081C
:100050006D3000086D3000086D3000086D3000080C
:100060006D3000086D3000086D3000086D300008FC
:100070006D3000086D3000086D3000086D300008EC
:100080006D3000086D3000086D3000086D300008DC
:100090006D3000086D3000086D3000086D300008CC
:1000A0006D3000086D3000086D3000086D300008BC
:1000B0006D30000800000000000000006D300008F6
:1000C0006D30000800000000000000006D300008E6
:1000D000000000006D3000086D30000800000000D6
:1000E0006D3000086D3000080000000000000000C6
:1000F0000000000000000000000000000000000000
:100100000000000000000000000000006D3000084A
:1001100000000000000000006D3000086D30000895
:100120006D3000086D3000086D3000086D3000083B
:100130006D3000080000000000000000000000001A
:100140006D3000086D3000086D3000086D3000081B
:100150006D3000086D3000086D3000086D3000080B
:100160006D3000086D3000086D30000800000000A0
:100170006D3000086D300008000000000000000035
:0C0180006D3000086D3000086D30000884
:1001900010B5054C237833B9044B13B10448AFF3C1
:1001A00000800123237010BDE0010020000000004A
:1001B0007862000808B5034B1BB103490348AFF34D
:1001C000008008BD00000000E40100207862000803
:1001D000034613F8012B002AFBD1181A0138704787
:1001E00001F0FF01102A2BDB10F0070F08D010F8E8
:1001F000013B013A8B422DD010F0070F42B3F6D1EC
:10020000F0B441EA012141EA014122F007047FF004
:1002100000070023F0E80256083C85EA010586EA5B
:10022000010685FA47F5A3FA87F586FA47F6A5FA97
:1002300087F68EB9EED1F0BC01F0FF0102F00702A3
:1002400032B110F8013B013A83EA010313B1F8D14E
:100250000020704701387047002D06BF354603382F
:10026000073815F0010F07D1013015F4807F02BF68
:10027000013015F4C03F0130F0BC0138704700BFB9
:1002800081F0004102E000BF83F0004330B54FEA47
:1002900041044FEA430594EA050F08BF90EA020FB4
:1002A0001FBF54EA000C55EA020C7FEA645C7FEA47
:1002B000655C00F0E2804FEA5454D4EB5555B8BF6A
:1002C0006D420CDD2C4480EA020281EA030382EADB
:1002D000000083EA010180EA020281EA0303362D6D
:1002E00088BF30BD11F0004F4FEA01314FF4801C40
:1002F0004CEA113102D0404261EB410113F0004F52
:100300004FEA03334CEA133302D0524263EB430308
:1003100094EA050F00F0A780A4F10104D5F1200EA6
:100320000DDB02FA0EFC22FA05F2801841F1000101
:1003300003FA0EF2801843FA05F359410EE0A5F1D5
:1003400020050EF1200E012A03FA0EFC28BF4CF006
:10035000020C43FA05F3C01851EBE37101F00045BC
:1003600007D54FF0000EDCF1000C7EEB00006EEBC9
:100370000101B1F5801F1BD3B1F5001F0CD3490853
:100380005FEA30004FEA3C0C04F101044FEA4452AA
:1003900012F5800F80F09A80BCF1004F08BF5FEA31
:1003A000500C50F1000041EB045141EA050130BD11
:1003B0005FEA4C0C404141EB010111F4801FA4F1B4
:1003C0000104E9D191F0000F04BF01460020B1FA09
:1003D00081F308BF2033A3F10B03B3F120020CDA41
:1003E0000C3208DD02F1140CC2F10C0201FA0CF01F
:1003F00021FA02F10CE002F11402D8BFC2F1200C84
:1004000001FA02F120FA0CFCDCBF41EA0C01904039
:10041000E41AA2BF01EB0451294330BD6FEA040482
:100420001F3C1CDA0C340EDC04F11404C4F120026D
:1004300020FA04F001FA02F340EA030021FA04F37F
:1004400045EA030130BDC4F10C04C4F1200220FAD6
:1004500002F001FA04F340EA0300294630BD21FA14
:1004600004F0294630BD94F0000F83F4801306BFDA
:1004700081F480110134013D4EE77FEA645C18BFCE
:100480007FEA655C29D094EA050F08BF90EA020F65
:1004900005D054EA000C04BF1946104630BD91EA5D
:1004A000030F1EBF0021002030BD5FEA545C05D160
:1004B0004000494128BF41F0004130BD14F580049F
:1004C0003CBF01F5801130BD01F0004545F0FE4113
:1004D00041F470014FF0000030BD7FEA645C1ABF48
:1004E000194610467FEA655C1CBF0B46024650EA7F
:1004F000013406BF52EA033591EA030F41F40021AB
:1005000030BD00BF90F0000F04BF0021704730B530
:100510004FF4806404F132044FF000054FF0000105
:1005200050E700BF90F0000F04BF0021704730B5C6
:100530004FF4806404F1320410F0004548BF40429B
:100540004FF000013EE700BF42004FEAE2014FEAF0
:1005500031014FEA02701FBF12F07F4393F07F4FCB
:1005600081F06051704792F0000F14BF93F07F4FFD
:10057000704730B54FF4607401F0004521F0004140
:1005800020E700BF50EA010208BF704730B54FF0C6
:1005900000050AE050EA010208BF704730B511F0CB
:1005A000004502D5404261EB41014FF4806404F103
:1005B00032045FEA915C3FF4DCAE4FF003025FEA85
:1005C000DC0C18BF03325FEADC0C18BF033202EB0D
:1005D000DC02C2F1200300FA03FC20FA02F001FA67
:1005E00003FE40EA0E0021FA02F11444C1E600BF06
:1005F00070B54FF0FF0C4CF4E06C1CEA11541DBFB9
:100600001CEA135594EA0C0F95EA0C0F00F0DEF883
:100610002C4481EA030621EA4C5123EA4C5350EA68
:10062000013518BF52EA033541F4801143F48013B9
:1006300038D0A0FB02CE4FF00005E1FB02E506F04A
:100640000042E0FB03E54FF00006E1FB03569CF09F
:10065000000F18BF4EF0010EA4F1FF04B6F5007FA5
:1006600064F5407404D25FEA4E0E6D4146EB060617
:1006700042EAC62141EA55514FEAC52040EA5E50A0
:100680004FEACE2EB4F1FD0C88BFBCF5E06F1ED84A
:10069000BEF1004F08BF5FEA500E50F1000041EB81
:1006A000045170BD06F0004646EA010140EA02002E
:1006B00081EA0301B4EB5C04C2BFD4EB0C0541EA50
:1006C000045170BD41F480114FF0000E013C00F365
:1006D000AB8014F1360FDEBF002001F0004170BD89
:1006E000C4F10004203C35DA0C341BDC04F11404A2
:1006F000C4F1200500FA05F320FA04F001FA05F22E
:1007000040EA020001F0004221F0004110EBD370FA
:1007100021FA04F642EB06015EEA430E08BF20EA26
:10072000D37070BDC4F10C04C4F1200500FA04F3C9
:1007300020FA05F001FA04F240EA020001F000415B
:1007400010EBD37041F100015EEA430E08BF20EACE
:10075000D37070BDC4F1200500FA05F24EEA020E16
:1007600020FA04F301FA05F243EA020321FA04F045
:1007700001F0004121FA04F220EA020000EBD370FC
:100780005EEA430E08BF20EAD37070BD94F0000FFC
:100790000FD101F00046400041EB010111F4801F30
:1007A00008BF013CF7D041EA060195F0000F18BFE1
:1007B000704703F00046520043EB030313F4801F1D
:1007C00008BF013DF7D043EA0603704794EA0C0FD7
:1007D0000CEA135518BF95EA0C0F0CD050EA4106ED
:1007E00018BF52EA4306D1D181EA030101F000416A
:1007F0004FF0000070BD50EA410606BF1046194692
:1008000052EA430619D094EA0C0F02D150EA01369D
:1008100013D195EA0C0F05D152EA03361CBF1046DE
:1008200019460AD181EA030101F0004141F0FE417D
:1008300041F470014FF0000070BD41F0FE4141F401
:10084000780170BD70B54FF0FF0C4CF4E06C1CEA01
:1008500011541DBF1CEA135594EA0C0F95EA0C0FB6
:1008600000F0A7F8A4EB050481EA030E52EA033571
:100870004FEA013100F088804FEA03334FF0805592
:1008800045EA131343EA12634FEA022245EA1115BF
:1008900045EA10654FEA00260EF000419D4208BF70
:1008A000964244F1FD0404F5407402D25B084FEA1D
:1008B0003202B61A65EB03055B084FEA32024FF4C9
:1008C00080104FF4002CB6EB020E75EB030E22BF26
:1008D000B61A754640EA0C005B084FEA3202B6EBE6
:1008E000020E75EB030E22BFB61A754640EA5C0095
:1008F0005B084FEA3202B6EB020E75EB030E22BF25
:10090000B61A754640EA9C005B084FEA3202B6EB25
:10091000020E75EB030E22BFB61A754640EADC00E4
:1009200055EA060E18D04FEA051545EA16754FEA46
:1009300006164FEAC30343EA52734FEAC2025FEA64
:100940001C1CC0D111F4801F0BD141EA00014FF0F3
:1009500000004FF0004CB6E711F4801F04BF0143C4
:100960000020B4F1FD0C88BFBCF5E06F3FF6AFAEE0
:10097000B5EB030C04BFB6EB020C5FEA500C50F170
:10098000000041EB045170BD0EF0004E4EEA1131F3
:1009900014EB5C04C2BFD4EB0C0541EA045170BDFA
:1009A00041F480114FF0000E013C90E645EA060E3E
:1009B0008DE60CEA135594EA0C0F08BF95EA0C0F6C
:1009C0003FF43BAF94EA0C0F0AD150EA01347FF4B4
:1009D00034AF95EA0C0F7FF425AF104619462CE78B
:1009E00095EA0C0F06D152EA03353FF4FDAE1046EE
:1009F000194622E750EA410618BF52EA43067FF43F
:100A0000C5AE50EA41047FF40DAF52EA43057FF4CE
:100A1000EBAE12E74FF0FF3C06E000BF4FF0010CD9
:100A200002E000BF4FF0010C4DF804CD4FEA410C3D
:100A30007FEA6C5C4FEA430C18BF7FEA6C5C1BD00A
:100A400001B050EA410C0CBF52EA430C91EA030F8B
:100A500002BF90EA020F0020704710F1000F91EAE8
:100A6000030F58BF994208BF90422CBFD8176FEAB6
:100A7000E37040F0010070474FEA410C7FEA6C5C84
:100A800002D150EA013C07D14FEA430C7FEA6C5C8B
:100A9000D6D152EA033CD3D05DF8040B704700BFB7
:100AA0008446104662468C461946634600E000BF05
:100AB00001B5FFF7B7FF002848BF10F1000F01BDD7
:100AC0004DF808EDFFF7F4FF0CBF012000205DF8A2
:100AD00008FB00BF4DF808EDFFF7EAFF34BF012027
:100AE00000205DF808FB00BF4DF808EDFFF7E0FFC0
:100AF00094BF012000205DF808FB00BF4DF808ED11
:100B0000FFF7CEFF94BF012000205DF808FB00BF77
:100B10004DF808EDFFF7C4FF34BF012000205DF859
:100B200008FB00BF4FEA410C7FEA6C5C02D150EA3F
:100B3000013C0AD14FEA430C7FEA6C5C02D152EAD5
:100B4000033C02D14FF0000070474FF001007047A6
:100B50004FEA410212F5001215D211D56FF47873E5
:100B6000B3EB625212D94FEAC12343F0004343EA88
:100B7000505311F0004F23FA02F018BF4042704763
:100B80004FF00000704750EA013005D111F00040ED
:100B900008BF6FF0004070474FF00000704700BF83
:100BA00053B94AB9002908BF00281CBF4FF0FF31D4
:100BB0004FF0FF3000F07AB9ADF1080C6DE904CECA
:100BC00000F006F8DDF804E0DDE9022304B0704728
:100BD0002DE9F0478C460D460446089E002B51D166
:100BE0008A4217466DD9B2FA82FEBEF1000F0BD0D1
:100BF000CEF1200C01FA0EF520FA0CFC02FA0EF7E9
:100C00004CEA050C00FA0EF44FEA174A250CBCFB1F
:100C1000FAF81FFA87F90AFB18CC45EA0C4508FBDD
:100C200009F3AB420AD9ED1908F1FF3280F02381B4
:100C3000AB4240F22081A8F102083D44ED1AA4B273
:100C4000B5FBFAF00AFB105544EA054400FB09F92C
:100C5000A14509D9E41900F1FF3380F00A81A145CB
:100C600040F2078102383C44A4EB090440EA084002
:100C70000021002E61D024FA0EF40023346073604A
:100C8000BDE8F0878B4207D9002E54D0002186E8BA
:100C900021000846BDE8F087B3FA83F1002940F04F
:100CA0008E80AB4202D3824200F2FA80841A65EB56
:100CB00003050120AC46002E3FD086E81010BDE8A9
:100CC000F08712B90127B7FBF2F7B7FA87FEBEF13A
:100CD000000F34D1EB1B3A0C1FFA87FC0121B3FB48
:100CE000F2F8250C02FB183345EA03450CFB08F328
:100CF000AB4207D9ED1908F1FF3002D2AB4200F246
:100D0000D1808046ED1AA3B2B5FBF2F002FB10557C
:100D100043EA05440CFB00FCA44507D9E41900F1A3
:100D2000FF3302D2A44500F2B8801846A4EB0C04AD
:100D300040EA08409DE731463046BDE8F087CEF1F5
:100D4000200405FA0EF307FA0EF720FA04F83A0C1D
:100D500025FA04F448EA0308B4FBF2F14FEA184517
:100D600002FB11441FFA87FC45EA044501FB0CF322
:100D7000AB4200FA0EF409D9ED1901F1FF3080F011
:100D80008A80AB4240F2878002393D44EB1A1FFA59
:100D900088F5B3FBF2F002FB103345EA034500FB94
:100DA0000CF3AB4207D9ED1900F1FF386FD2AB421B
:100DB0006DD902383D44EB1A40EA01418FE7C1F199
:100DC000200722FA07F88B4005FA01F448EA0303EA
:100DD00020FA07FE4FEA134CFD404EEA040EB5FB25
:100DE000FCF94FEA1E440CFB19551FFA83F844EA3C
:100DF000054509FB08F4AC4202FA01F200FA01FAD7
:100E000008D9ED1809F1FF3043D2AC4241D9A9F11C
:100E100002091D442D1B1FFA8EFEB5FBFCF00CFBD6
:100E200010554EEA054400FB08F8A04507D9E41820
:100E300000F1FF3529D2A04527D902381C4440EAE9
:100E40000940A4EB0804A0FB02894C45C6464D4668
:100E500015D312D056B1BAEB0E0364EB050404FAB5
:100E600007F7CB401F43CC40376074600021BDE8DA
:100E7000F0871846F8E69046E0E6C245EAD2B8EBBD
:100E8000020E69EB03050138E4E72846D7E7404640
:100E900091E78146BEE7014678E702383C4445E7E2
:100EA000084608E7A8F102083D442BE7704700BF59
:100EB00038B50A4B054618684FF47A73B0FBF3F067
:100EC00000F080F8044638B9024629464FF0FF305A
:100ED00000F044F8204638BD012038BD080000204D
:100EE00010B5032000F028F80020FFF7E1FF0446CA
:100EF00018B901F0A5FF204610BD0124FBE7000052
:100F0000024A136801331360704700BF0C020020CF
:100F1000014B1868704700BF0C02002038B504462A
:100F2000FFF7F6FF631C054618BF0134FFF7F0FF1B
:100F3000401B8442FAD838BD074AD36823F4E063E3
:100F40001B041B0C43F0BF63000243F4003300F4A6
:100F5000E0600343D360704700ED00E0174B30B50D
:100F6000DC68C4F30224C4F10703251D042B28BF49
:100F70000423062D4FF0010505FA03F303F1FF33B7
:100F80008CBF033C00241940A14005FA04F4013C45
:100F90002240002842EA01024FEA0212AFBF00F1EC
:100FA000604000F00F00064BD2B2A5BF00F56140D3
:100FB000D2B21A5480F8002330BD00BF00ED00E02B
:100FC00014ED00E00138B0F1807F0AD2064B074AE9
:100FD0005860F02182F823100020072298601A60E0
:100FE00070470120704700BF10E000E000ED00E016
:100FF000044B1A6804280CBF42F0040222F00402D9
:101000001A60704710E000E0704708B5FFF7FCFF7A
:1010100008BD00002DE9F04F85B00B68DFF858815E
:10102000534A01934FF00F090023019CDC4002D189
:1010300005B0BDE8F08F012404FA03FA019C14EA1C
:101040000A0500F08F804C6824F0100BBBF1020FF2
:1010500011D1DF0800EB870703F0070E3E6A4FEA65
:101060008E0E09FA0EFC26EA0C0C0E6906FA0EF634
:1010700046EA0C063E624FEA430C0327066807FA6D
:101080000CF7FF4304F0030E3E400EFA0CFE0BF18A
:10109000FF3B4EEA0606BBF1010F066011D88668D9
:1010A00006EA070BCE6806FA0CFE4EEA0B068660CF
:1010B000466826EA0A0AC4F300169E4046EA0A0673
:1010C0004660C66837408E6806FA0CF63743E6007D
:1010D000C76047D5D8F8606046F00106C8F8606080
:1010E000D8F8606023F0030707F1804706F0010697
:1010F00007F58037039603F0030E039EBE684FEAA0
:101100008E0E09FA0EFCB0F1904F26EA0C0C2BD093
:10111000184EB0422AD006F58066B04214BF0726AA
:10112000022606FA0EF646EA0C06BE601668EF4383
:1011300014F4803F0CBF3E402E431660566814F4F2
:10114000003F0CBF3E402E435660966814F4801F4B
:101150000CBF3E402E439660D668A40254BF3E406A
:101160002E43D660013360E70026DAE70126D8E790
:101170000004014000040048001002400AB18161EF
:1011800070478162704703689A69910744BF0022E3
:101190009A629A69D2075EBF9A6942F001029A6127
:1011A000704730B5039C05682343640D04F48064E4
:1011B00044F07F7444F458346868C1F3090144F47E
:1011C0007F74194344F0030441EA024120EA040415
:1011D0002143696030BD2DE9F041069F04468846F1
:1011E00016461D462268936938EA03030CBF0123A3
:1011F0000023B34202D00020BDE8F0816B1CF2D086
:10120000FFF786FEC01B854201D3002DEAD1636C37
:1012100043F020036364202384F84130002384F8E2
:10122000423084F840300120BDE8F081036870B599
:101230000446986910F010000D46164616D170BD90
:10124000691C14D0FFF764FE801B854200D36DB982
:10125000636C43F020036364202384F8413000234F
:1012600084F8423084F84030012070BD23689969C9
:101270008A06E5D510222025DA612046DD61FFF7D8
:1012800082FF2268536823F0FF7323F48B3323F427
:10129000FF7323F001035360636C43F00403636442
:1012A00084F84150DBE770B504460D4616462368C6
:1012B0009B699B0701D5002070BD32462946204618
:1012C000FFF7B4FFA0B96A1CF1D0FFF721FE801B25
:1012D000854201D3002DEAD1636C43F0200363649F
:1012E000202384F84130002384F8423084F84030D1
:1012F000012070BD70B504460D46164623689B69F3
:101300009B0601D5002070BD324629462046FFF7D6
:101310008DFF90B9FFF7FCFD801B854201D3002DA6
:10132000ECD1636C43F020036364202384F84130E4
:10133000002384F8423084F84030012070BD70B53D
:1013400004460D46164623689B695B070ED4324659
:1013500029462046FFF76AFFF0B923689A6991068B
:101360001CD59A69520703D5228D0AB1002070BDA1
:101370002021D9615A6822F0FF7222F48B3222F4C4
:10138000FF7222F001025A600023636484F8411066
:1013900084F8423084F84030012070BDFFF7B8FD7A
:1013A000801B854201D3002DCDD1636C43F0200317
:1013B0006364202384F841300023EBE710B5044632
:1013C00000284AD090F8413003F0FF021BB980F8A2
:1013D000402001F07BFD242384F841302368E1683C
:1013E0001A6822F001021A60626822F070621A61C3
:1013F0009A68012922F400429A60A26824D142F43A
:1014000000429A605A68616942F0007242F40042F8
:101410005A60DA6822F40042DA6022690A43A1695C
:1014200042EA0122DA60216AE2690A431A601A6814
:1014300042F001021A6000202023606484F84130E9
:10144000206384F8420010BD42F4044202299A60ED
:1014500004BF4FF400625A60D4E7012010BD0000C1
:101460002DE9F743984690F84130202B04460E466C
:10147000914640F0848090F84030012B7FD00127C6
:1014800080F84070FFF744FD1923054600903A4666
:101490004FF400412046FFF79EFE18B1012003B033
:1014A000BDE8F083212384F84130102384F84230D2
:1014B0006064A4F82A80638DC4F824909BB2FF2B4B
:1014C0006063304B26D9FF22228500934FF0807352
:1014D00031462046FFF765FE638D0A999BB22A4686
:1014E0002046FBB9FFF706FF0028D7D1236820214B
:1014F000D9615A6822F0FF7222F48B3222F4FF7213
:1015000022F001025A6084F8411084F8400084F807
:101510004200C4E7628D009392B222854FF00073BF
:10152000D2B2D5E7FFF7BFFE0028B7D1636A2268C1
:1015300013F8011B91626362638D228D013B9BB2A4
:101540006385638D013A92B29BB22285002BC3D092
:10155000002AC1D100950A9B80212046FFF73BFE5F
:1015600000289BD1638D9BB2FF2B03D9FF222285DC
:101570000090ABE7628D009092B22285CEE7022008
:101580008DE700BF002000802DE9F743984690F8D2
:101590004130202B04460E46914640F0868090F85C
:1015A0004030012B00F08180012780F84070FFF768
:1015B000AFFC1923054600903A464FF400412046FF
:1015C000FFF709FE18B1012003B0BDE8F083222324
:1015D00084F84130102384F842306064A4F82A80F3
:1015E000638DC4F824909BB2FF2B6063304B26D9E7
:1015F000FF22228500934FF0807331462046FFF78B
:10160000D0FD638D0A999BB22A462046FBB9FFF7AD
:1016100071FE0028D7D123682021D9615A6822F0B1
:10162000FF7222F48B3222F4FF7222F001025A6020
:1016300084F8411084F8400084F84200C4E7628DC9
:10164000009392B222854FF00073D2B2D5E7FFF734
:1016500076FE0028B7D12268636A526A1A70636AFC
:10166000228D01336362638D013B9BB26385638D81
:10167000013A92B29BB22285002BC2D0002AC0D17F
:1016800000950A9B80212046FFF7A5FD00289AD1EE
:10169000638D9BB2FF2B03D9FF2222850090AAE71E
:1016A000628D009092B22285CDE702208CE700BFC8
:1016B0000024008090F84120D2B2202A10B51DD11C
:1016C00090F84030012B19D0242380F84130036872
:1016D0001C6824F001041C601C6824F480541C6005
:1016E0001C6821431960196841F001011960002349
:1016F00080F8412080F84030184610BD022010BD0F
:1017000010B590F84140E4B2202C1CD190F8403044
:10171000012B18D0242380F8413003681A6822F086
:1017200001021A601A6822F4706242EA012119600B
:101730001A6842F001021A60002380F8414080F8E4
:101740004030184610BD022010BD0000024A136848
:1017500043F480731360704700700040024B1868B8
:1017600000F4C060704700BF00700040174B1A685B
:10177000B0F5007F02F4C0621CD1B2F5007F15D035
:101780001A6822F4C06242F400721A60104A1168AA
:1017900032224A430F49B2FBF1F21946013258692D
:1017A000400500D522B94B695B050DD40020704778
:1017B000013AF4E7B2F5806F1FBF1A6822F4C062E5
:1017C00042F480621A60F1E7032070470070004025
:1017D0000800002040420F0037B51E4DAB6DDA0007
:1017E000044618D5FFF7BAFFB0F5007F23D1802C4F
:1017F00029D9A02C8CBF02200120174A136823F09E
:10180000070303431360136803F00703181A18BF94
:10181000012003B030BDAB6D43F08053AB65AB6DC1
:1018200003F080530193019BFFF798FFAB6D23F00A
:101830008053AB65D8E7802C07D808D0A4F170039B
:1018400058425841D9E70020D7E70320D5E70220C6
:10185000D3E700BF0010024000200240254B9A68E9
:10186000D96812F00C0205D00C2A15D101F0030141
:10187000012918D119682048090755BFD3F89410D9
:101880001968C1F30321C1F3031150F8210082B399
:101890000C2A09D000207047042A29D0082A1748AA
:1018A00018BF002070470020D968DA6801F00301F2
:1018B000C2F30212022902F1010205D0032912D05B
:1018C000D968C1F3062103E0D9680D48C1F30621A8
:1018D000DB68B0FBF2F0C3F34163013348435B00C4
:1018E000B0FBF3F07047D9680448C1F30621EFE775
:1018F00003487047001002400C63000800127A0091
:101900000024F4002DE9F743054608B9012046E01C
:10191000A84C0368A668E768DB0606F00C0607F02B
:10192000030772D51EB10C2E51D1012F4FD1236860
:10193000980702D5AB69002BE8D02368286A1907FD
:1019400056BFD4F8943023681B0903F0F003834298
:1019500028D2FFF741FF0028D8D1236843F00803BD
:10196000236023682A6A23F0F0031343236063682B
:10197000EA6923F47F4343EA02236360FFF76EFFC3
:10198000A3688D4AC3F30313D35C03F01F03D8404D
:101990008A4B18600020FFF78BFA002835D003B07F
:1019A000BDE8F083236843F008032360236823F035
:1019B000F003034323606368EA6923F47F4343EA47
:1019C00002236360FFF708FF0028D7D09EE7AB69CA
:1019D000002B3AD0236843F001032360FFF798FA05
:1019E000804623689A0728D5236843F008032360BC
:1019F00023682A6A23F0F003134323606368EA69CB
:101A000023F47F4343EA022363602B68D8072DD475
:101A10002B6899076BD42B68180700F1A0802B68FE
:101A2000590700F1CD802B68990600F13681AB6A29
:101A3000002B40F05C810020B1E7FFF769FAA0EBD2
:101A400008000228CDD90320A9E7236823F0010369
:101A50002360FFF75DFA804623689B07D5D5FFF723
:101A600057FAA0EB08000228F6D9ECE7082E03D0BD
:101A70000C2E08D1032F06D123689A03C8D56B68B2
:101A8000002BC5D142E76B68B3F5803F10D12368C6
:101A900043F480332360FFF73BFA804623689B03BF
:101AA000B6D4FFF735FAA0EB08006428F6D9CAE7E8
:101AB000B3F5A02F04D1236843F480232360E6E725
:101AC000226822F480322260226822F4802222607E
:101AD000002BE0D1FFF71CFA80462368980397D5C6
:101AE000FFF716FAA0EB08006428F6D9ABE7042E3E
:101AF00003D00C2E10D1022F0ED12368590503D527
:101B0000EB68002B3FF402AF63682A6923F0F853B7
:101B100043EA026363607EE7EB687BB1236843F4CA
:101B200080732360FFF7F4F9074623685A05EBD466
:101B3000FFF7EEF9C01B0228F7D984E7236823F4E6
:101B400080732360FFF7E4F9074623685B057FF5A0
:101B500062AFFFF7DDF9C01B0228F6D973E76B69A6
:101B60009BB1D4F8943043F00103C4F89430FFF7EC
:101B7000CFF90746D4F894309A073FF550AFFFF7F6
:101B8000C7F9C01B0228F5D95DE7D4F8943023F0DB
:101B90000103C4F89430FFF7BBF90746D4F894303A
:101BA0009B077FF53CAFFFF7B3F9C01B0228F5D9BF
:101BB00049E700BF00100240F4620008080000205E
:101BC000A36DD80029D4A36D43F08053A365A36D02
:101BD00003F080530193019B4FF00108714F3B6864
:101BE000D9051DD5AB68012B2BD1D4F8903043F02B
:101BF0000103C4F89030FFF78BF941F288390746AA
:101C0000D4F890309B0742D5B8F1000F3FF40BAFEA
:101C1000A36D23F08053A36505E74FF00008DDE7CF
:101C20003B6843F480733B60FFF772F981463B6881
:101C3000DA05D7D4FFF76CF9A0EB09000228F6D932
:101C400001E7052B06D1D4F8903043F00403C4F823
:101C50009030CAE7D4F8902022F00102C4F8902016
:101C6000D4F8902022F00402C4F89020002BC2D1B6
:101C7000FFF74EF941F288390746D4F890309807BB
:101C8000C2D5FFF745F9C01B4845F6D9DBE6FFF79B
:101C90003FF9C01B4845B3D9D5E66B6A9BB1D4F870
:101CA000983043F00103C4F89830FFF731F9074644
:101CB000D4F898309A073FF5BAAEFFF729F9C01B60
:101CC0000228F5D9BFE6D4F8983023F00103C4F810
:101CD0009830FFF71DF90746D4F898309B077FF539
:101CE000A6AEFFF715F9C01B0228F5D9ABE60C2EFE
:101CF0003FF40CAE022B236823F08073236036D1AF
:101D0000FFF706F90646236898012AD4AB6B6A6B85
:101D1000DB0643EA0223EA6A13432A6B013A43EAE9
:101D20000213EA6B5208013A43EA42532A6C520802
:101D3000013A43EA4263E360236843F0807323601F
:101D4000E36843F08073E360FFF7E2F80546236839
:101D500099013FF570AEFFF7DBF8401B0228F6D97A
:101D600071E6FFF7D5F8801B0228CCD96BE6236813
:101D70001A015EBFE36823F00303E360E36823F026
:101D8000887323F48033E360FFF7C2F805462368C5
:101D90009B017FF550AEFFF7BBF8401B0228F6D938
:101DA00051E600BF007000402DE9F0410E460446A8
:101DB00010B90120BDE8F081404A136803F0070321
:101DC0008B4229D32368D90731D421688A075BD491
:101DD0003A4A136803F007039E425DD311F0040FE3
:101DE000374D64D10B0706D5AB68226923F46053E5
:101DF00043EAC203AB60FFF731FDAB68314AC3F37E
:101E00000313BDE8F041D35C03F01F03D8402E4B11
:101E100018600020FFF74CB8136823F007030B434A
:101E20001360136803F007039942C2D1CAE76268DE
:101E3000234D032A2B681BD113F0007FB9D0AB6868
:101E400023F003031343AB60FFF762F841F28838D5
:101E50000746AB68626803F00C03B3EB820FB4D0A3
:101E6000FFF756F8C01B4045F3D90320BDE8F081C9
:101E7000022A02D113F4003FE0E712B913F0020F77
:101E8000DCE713F4806FD9E70D4AA068936823F06C
:101E9000F003034393609BE7136823F00703334386
:101EA0001360136803F007039E4282D196E7AB6884
:101EB000E26823F4E0631343AB6093E70020024041
:101EC00000100240F462000808000020014B18686E
:101ED000704700BF08000020054B064A9B68C3F30B
:101EE0000223D35C044A106803F01F03D8407047F4
:101EF000001002400463000808000020054B064A59
:101F00009B68C3F3C223D35C044A106803F01F0329
:101F1000D840704700100240046300080800002009
:101F2000F8B5444BDA6812F0030F05460E461C461E
:101F3000006839D0DA6802F0030282424BD1002AED
:101F400049D0DB686A68C3F302130133934242D17C
:101F5000236823F080632360FEF7DAFF07462368D7
:101F60001A0141D4AF68002E45D0012E4FD122690D
:101F7000286922F4C002400822F4FE42013842EAF5
:101F8000072242EA40522261236843F080632360C3
:101F9000FEF7BEFF064623681B0145D52369AA69E3
:101FA000134323610020F8BD022810D0032814D069
:101FB000012810D11B689F07F5D5E3686A6823F0F4
:101FC0007303013A184340EA0210E060C0E71B685F
:101FD00013F4806FF1D10120F8BD1A689103ECD49D
:101FE0001B6813F4802FF5E7FEF792FFC01B022851
:101FF000B5D90320F8BD2269E96822F07842C90604
:1020000041EA072322F4FE4213432361BCE723691C
:10201000686923F0C063400823F4FE43013843EAB3
:10202000072343EA4063F0E7FEF772FF801B0228B4
:10203000B1D9DEE7001002402DE9F743056815F439
:10204000006504460ED0C16BB1F5000F53D0B1F559
:10205000400F55D000295ED10430FFF761FF0546DF
:1020600000284DD023689E0363D5934EB36DD800EE
:1020700040F116810027DFF84482D8F8003043F49D
:102080008073C8F80030FEF743FF8146D8F800306F
:10209000D90542D5002D47D1D6F8903013F44073BE
:1020A00014D0226D934211D0D6F89030D6F89020FB
:1020B00042F48032C6F89020D6F8902023F4407382
:1020C00022F48032C6F89020C6F89030DA0709D59D
:1020D000FEF71EFF41F288398046D6F890309B0704
:1020E00040F1C080D6F89030226D23F44073134342
:1020F000C6F8903018E0704AD36843F48033D36058
:102100006D4AE16BD2F8883023F440030B43C2F8E8
:1021100088300025A6E70125A4E7FEF7F9FEA0EB2D
:1021200009000228B2D903251FB1B36D23F08053F3
:10213000B3652368DF0708D55F49206AD1F8882096
:1021400022F003020243C1F888209E0708D55A49AD
:10215000606AD1F8882022F00C020243C1F888207E
:10216000980608D55449A06AD1F8882022F4406224
:102170000243C1F88820990508D54F49606BD1F812
:10218000882022F440220243C1F888205A0508D54D
:102190004949A06BD1F8882022F440120243C1F8CB
:1021A00088205F0608D54449E06AD1F8882022F4E7
:1021B00040520243C1F88820DE0508D53E49206B15
:1021C000D1F8882022F440320243C1F888209804D4
:1021D0000FD5394A216CD2F8883023F040630B4385
:1021E000B1F1006FC2F8883044D1D36843F4801352
:1021F000D360236859030FD52F4A616CD2F8883019
:1022000023F040630B43B1F1006FC2F888303CD13A
:10221000D36843F48013D36023685A0412D5264947
:10222000A26CD1F8883023F040531343B2F1805FA1
:10223000C1F8883006D10221201DFFF771FE002869
:1022400018BF054623681B0408D51B4AE16CD2F869
:10225000883023F080430B43C2F88830284603B00F
:10226000BDE8F083FEF754FEA0EB080048457FF67A
:1022700034AF58E7B1F1806FBBD10121201DFFF7CA
:102280004FFE002818BF0546B3E7B1F1806FC3D1F8
:102290000121201DFFF744FE002818BF0546BBE7BB
:1022A000B36D43F08053B365B36D03F08053019376
:1022B000019B0127DFE600BF0010024000700040D4
:1022C000024A136843F00403136070470010024091
:1022D0000268C169F8B5044683680069156803435C
:1022E0006069034382480B432840034313605368EB
:1022F000E06823F44053034353607E4BA0699A4245
:102300001CBF236A1843936823F43063034393602C
:10231000794B9A4214D103F55843784AD3F8883060
:1023200003F00303B1F5004FD35C40F0AA80082B03
:1023300020D8DFE803F0778F921F9B1F1F1F9E009E
:102340006F4B9A4207D103F5E6336E4AD3F88830D3
:1023500003F00C03E6E7674B9A4240F0C28003F5B6
:10236000C833D3F8885005F44065B5F5806F2AD09E
:1023700006D815B301220023236663661046F8BD14
:10238000B5F5006F06D0B5F5406FF3D14FF40040BE
:10239000082501E05C480225626802EB42038342A3
:1023A000E8D8B0EB023FE5D8082D38D8DFE805F0D3
:1023B0000F3726372E3737373100FFF78DFD0028CE
:1023C000EAD10246D7E7FFF749FA0425F7E7FFF716
:1023D00083FD62684FF4807156080027E1FB0067B7
:1023E000002330463946FEF7DBFB0022474BA0F5C1
:1023F00040719942BED82368D860BCE7444855086C
:1024000000230021401941F10001ECE7FFF726FA13
:10241000DFE750080021002310F50000F3E7012258
:102420000020E3E7FFF758FD61684A0802EB40032C
:10243000B3FBF1F39BB20022A3F110004FF6EF7152
:10244000884297D823F00F012068C3F342030B435F
:10245000C36090E7FFF752FDE6E76068430803F1C9
:10246000F47303F59043B3FBF0F3E3E7FFF7F6F9FA
:10247000DAE76068430803F58033F4E701220023BC
:10248000DAE7082B30D8DFE803F005181B2F242FDC
:102490002F2F2700FFF720FD626800EB5203B3FBEC
:1024A000F2F39BB20022A3F110004FF6EF718842C5
:1024B0003FF660AF2168CB605DE7FFF71FFDEBE7FC
:1024C0006068430803F5740303F51053B3FBF0F39E
:1024D000E7E7FFF7C3F9DFE76068430803F5004368
:1024E000F4E7B1F5004FC9D001220023DBE700BFBC
:1024F000F369FFEF0080004000380140906200085F
:1025000000440040946200080024F400FFFC0F0027
:10251000000024F4436ADA0710B506D50168846A1E
:102520004A6822F4003222434A609C0706D50168BB
:10253000C46A4A6822F4803222434A60590706D5A9
:102540000168046B4A6822F4802222434A601A0719
:1025500006D50168446B4A6822F4004222434A606F
:10256000DC0606D50168846B8A6822F48052224317
:102570008A60990606D50168C46B8A6822F4005205
:1025800022438A605A060FD50168046C4A6822F417
:1025900080122243B4F5801F4A6005D14A68446C1A
:1025A00022F4C00222434A601B0606D50268816CF1
:1025B000536823F400230B43536010BD2DE9F04111
:1025C000069D04460F46164698462168CA6937EAB2
:1025D00002030CBF01220022B24202D00020BDE85B
:1025E000F0816B1CF2D09DB923681A6822F4D07276
:1025F0001A609A6822F001029A60202384F87130F0
:1026000084F87230002384F870300320BDE8F08134
:10261000FEF77EFCA0EB08008542D6D2E4E72DE968
:10262000F3411F4690F87130202B04460D4690462A
:102630004AD1002946D0002A44D090F87030012BAE
:1026400042D0012380F8703000234367212380F8B3
:102650007130FEF75DFCA4F850800646A4F8528065
:10266000B4F85220009792B2334652B94021204626
:10267000FFF7A4FF58B9202384F8713084F8700064
:1026800006E0002280212046FFF798FF18B10320C2
:1026900002B0BDE8F081A3682268B3F5805F0DD178
:1026A00023695BB935F8023BC3F308031385B4F81B
:1026B0005230013B9BB2A4F85230D1E72B781385FE
:1026C0000135F4E70120E3E70220E1E773B50446B2
:1026D00000264667FEF71CFC23681B681A070546A0
:1026E00017D423681B685B070AD56FF07E430093FD
:1026F00000222B464FF480012046FFF75FFFA0B970
:102700002023002084F8713084F8700084F872303F
:102710000CE06FF07E430093324603464FF4001105
:102720002046FFF74BFF0028DBD0032002B070BD2E
:1027300010B5044660B390F8713003F0FF021BB986
:1027400080F8702000F0EAFB2268242384F87130BE
:10275000136823F0010313602046FFF7B9FD012839
:1027600016D0636A13B12046FFF7D4FE23685A6877
:1027700022F490425A609A6822F02A029A601A68FB
:1027800042F0010220461A60BDE81040FFF79EBFEC
:10279000012010BD2DE9FF472B4B93F800A02B4BD8
:1027A00093F800902A4B93F800802A4B1F782A4B0D
:1027B0000AEB09021E7842443A4405469419FDF793
:1027C00007FD2B4628440022834238D1234B8DF845
:1027D00003A01B788DF80030214B8DF804901B78F6
:1027E0008DF801301F4B8DF805801B788DF8023075
:1027F00022440023D2438DF806708DF807608DF8CF
:1028000008308DF809308DF80A308DF80B308DF8CE
:102810000C308DF80D308DF80E308DF80F200DEB4B
:102820000302E95C11720133072BF8D164231022F3
:1028300069460D48FFF7F3FE04B0BDE8F08713F8D2
:10284000011B0A44C0E700BF05000020040000206F
:102850000300002002000020FD01002007000020EE
:10286000FC010020060000207002002010B5ACB072
:10287000FEF76CFF284AD2F8903023F01803C2F814
:10288000903014230693002310220D93602301241B
:102890000E9313920223072206A808940C94109317
:1028A00011941294149215931693FFF72BF800B11C
:1028B000FEE70F2301930390032304900590214624
:1028C00001A80293FFF770FA00B1FEE743231F90BF
:1028D0002090229017A81793FFF7AEFB00B1FEE7F8
:1028E0004FF40070FEF742FF044600B1FEE7FFF729
:1028F000EDFA4FF47A73B0FBF3F0FEF763FB0420BC
:10290000FEF776FBFFF7DCFC224621464FF0FF3056
:10291000FEF724FB2CB010BD0010024000000000A8
:102920002DE9F04F2DED048BB5B0FEF7D9FAFFF786
:102930009DFF374B3748DA6C42F00402DA64DA6CF8
:1029400002F004020292029ADA6C42F00102DA64A6
:10295000DA6C02F001020392039ADA6C42F002028E
:10296000DA64DB6C03F002030493002208210024E4
:10297000049B0125FEF702FC082326482F932FA96C
:10298000309531943294FEF745FB2348234B846005
:102990004FF4E13680E848000C26C46004614661CB
:1029A0008461C46104624462FFF7C2FE00B1FEE7C5
:1029B0001B4B1C4998604FF41652D86018619861FF
:1029C000D86118625862184683E806005E61FFF716
:1029D000AFFE00B1FEE7144C144A154BA060206115
:1029E0006061A061E0612062204684E80C00E5603F
:1029F000FEF7E4FC014600B1FEE72046FEF75AFE72
:102A0000014600B1FEE72046FEF77AFE90B1FEE7F0
:102A10000010024000040048000300200044004071
:102A200070020020003801401402002000540040D1
:102A3000BB7C7000D44EDFF8B0933570E523737023
:102A40008323B3701E27B046642599F800100095C3
:102A5000032342462046FEF703FD0023337099F816
:102A600000100095012342462046FEF7F9FCDFF8EE
:102A70007CA3C64B52461978009502232046FEF7E8
:102A800083FD9AF800209AF8013043EA0223C04AF5
:102A90001B111380BF4A11880B441BB2013F1380E6
:102AA000D2D11E2193FBF1F307EE903A9FEDBA6A63
:102AB0009FEDBA7A1380F8EEE77AF1EE046A67EEDA
:102AC000867AB74BB74FB84C36EEE75AB0EE469A17
:102AD000C5EE075A83ED005A87EEA55AB34BC3EDF6
:102AE000005AB34BF0EE668A83ED005AB0EE478A87
:102AF0004FF000084146102208A8CDF81480CDF808
:102B00001880CDF81C8000F0D7FA414610220DA89D
:102B1000CDF8308000F0D0FA4146102212A8CDF84E
:102B2000448000F0C9FA4146102217A8CDF8588019
:102B300000F0C2FA414610221CA8CDF86C8000F0CB
:102B4000BBFA4146102221A8CDF8808000F0B4FAEB
:102B50004146102226A8DFF83092CDF89480DFF8A5
:102B600088A2DFF84CB200F0A7FA414610222BA849
:102B70000126CDF8A88000F09FFA4146102230A827
:102B8000CDF8BC8000F098FA89F800609AF800103F
:102B900000954A4603233846FEF762FC9AF8001077
:102BA00089F8008033464A4600953846FEF758FCBF
:102BB0004FF4FA60FEF7B2F9DFF83482734BDFF8B6
:102BC00034A219780095424602233846FEF7DCFC11
:102BD00098F8002098F80130DFF81C92DFF81C828A
:102BE00043EA02231B0907EE903AF8EEE77A714AAE
:102BF00067EE897A138038EEE77A6F4B8AED007AB8
:102C0000C7EE086A87EEA67AC9ED006ADBED006AB6
:102C100088ED007AC7EE267AC3ED007A17EE900AA7
:102C2000FDF792FC9FED541B41EC100B02F0ACFA47
:102C300053A3D3E9002351EC100BFDF7D9FCFDF7AA
:102C400087FF5E4B5E490028CCBF0246324605A88E
:102C50001A6000F0A5FE524B1868FDF775FC02469D
:102C60000B4607A8574900F09BFE504B1868FDF72C
:102C70006BFC02460B460CA8534900F091FEDBF8B2
:102C80000000FDF761FC02460B4611A84F4900F019
:102C900087FEDAF80000FDF757FC02460B4616A83F
:102CA0004B4900F07DFED9F80000FDF74DFC0246CF
:102CB0000B461BA8474900F073FED8F80000FDF74B
:102CC00043FC02460B4620A8434900F069FE3A4BFC
:102CD0001868FDF739FC02460B4625A83F4900F06D
:102CE0005FFE2C4B3E49B3F900202AA800F058FEA5
:102CF000304B3C49B3F900202FA800F051FE2AA91F
:102D0000642314222046FFF78AFC07A964231422B7
:102D10002046FFF784FC0CA9642314222046FFF709
:102D20007EFC11A9642314222046FFF778FC2FA90A
:102D3000642314222046FFF772FC16A96423142290
:102D40002046FFF76CFC1BA9642314222046FFF7E2
:102D500066FC20A9642314222046FFF760FC25A905
:102D6000642314222046FFF75AFC6423082205A995
:102D70002046FFF754FC43E0A245B6F3FDD4F2BF72
:102D8000098A1F63EEDA1140F002002000000020E3
:102D9000E8020020FE0100206F12833A000060422A
:102DA000FC02002014020020000300207803002011
:102DB0008C03002066020020F8020020800300201F
:102DC000A1620008A7620008B0620008B9620008AA
:102DD000C2620008CB620008D4620008DD6200080D
:102DE000E6620008ED620008010000206802002091
:102DF000840300207C030020EC020020100200204D
:102E000007A8FFF7C7FC0CA8FFF7C4FC11A8FFF741
:102E1000C1FC16A8FFF7BEFC1BA8FFF7BBFC20A84F
:102E2000FFF7B8FC25A8FFF7B5FC2AA8FFF7B2FC0E
:102E30002FA8FFF7AFFC05A8FFF7ACFC58E600BFD2
:102E4000214B07B51A6E42F001021A661A6E02F0A3
:102E500001020092009A9A6D42F080529A659B6D31
:102E600003F0805301930320019BFEF765F80022D5
:102E700011466FF00B00FEF771F8002211466FF05B
:102E80000A00FEF76BF8002211466FF00900FEF70A
:102E900065F8002211466FF00400FEF75FF800228B
:102EA00011466FF00300FEF759F8002211466FF04B
:102EB0000100FEF753F8002211464FF0FF30FEF7F5
:102EC0004DF803B05DF804FB001002407FB50268C6
:102ED0000F4B9A4218D1C02301931223029300236F
:102EE00003930323049304230DEB03010948059383
:102EF000FEF790F8084B9A6D42F400129A659B6DAC
:102F000003F400130093009B07B05DF804FB00BFBF
:102F100000540040000400480010024070B50368EF
:102F2000214A934288B01BD1204B1A6E42F4804252
:102F30001A661B6E03F480430193019B4FF4C06338
:102F4000039302230493002305930323069307238B
:102F5000079303A94FF09040FEF75CF808B070BDEE
:102F6000134A9342FAD1114B9A6D42F400329A659A
:102F70009B6D03F400330293029B04230324039309
:102F800002260723002503A94FF0904007930496DB
:102F900005950694FEF73EF84FF40043039304961C
:102FA000059506940794D4E70038014000100240CC
:102FB000004400407047FEE7FEE7FEE7FEE770478B
:102FC0007047704708B5FDF79BFFBDE80840FEF766
:102FD0001CB800000F49D1F8883043F47003C1F8E1
:102FE00088300D4B1A68002042F001021A60986088
:102FF0001A6822F0A85222F410221A604FF480526C
:10300000DA601A6822F480221A6098614FF0006337
:103010008B60704700ED00E000100240DFF834D014
:10302000002103E00C4B5B58435004310B480C4B20
:1030300042189A42F6D30B4A02E0002342F8043BBE
:10304000094B9A42F9D3FFF7C5FF00F011F8FFF7DB
:1030500067FCFEE700000120F0650008000000208A
:10306000E0010020E001002094030020FEE70000C2
:1030700070B50D4E0D4CA41BA4100025A54209D11E
:103080000B4E0C4C03F0F8F8A41BA4100025A5422D
:1030900005D170BD56F8253098470135EEE756F852
:1030A000253098470135F2E7E8650008E865000833
:1030B000E8650008EC65000802440346934200D12D
:1030C000704703F8011BF9E72DE9FF4755EC104B5A
:1030D0000D9FDDF830A0002D0E4691461946B8BF71
:1030E00022462B4627F02007BBBF05F100431D46B3
:1030F00000232D23B8BF1446462F0B7004D0452F54
:1031000000D10136022100E0032103AB019302ABA1
:1031100000933246534645EC104B00F0F1FC472F2C
:10312000804602D119F0010F26D0462F08EB060980
:1031300011D198F80030302B0AD10022002320460C
:103140002946FDF7BDFC18B9C6F10106CAF80060B2
:10315000DAF8003099440022002320462946FDF782
:10316000AFFC38B93022039B994505D9591C03910E
:103170001A70F8E7CDF80C90039B0E9AA3EB0803A6
:103180004046136004B0BDE8F087F7B50346002958
:10319000B8BF494203F8022BB4BF2D222B220929C4
:1031A000427020DD0DF1070217460A2691FBF6F565
:1031B00006FB15113031092D02F8011C02F1FF3414
:1031C000294609DC3031023A04F8011CBA421C4697
:1031D00004D3201A03B0F0BD2246E7E712F8011B22
:1031E00003F8011BF2E730221C46114404F8022BBD
:1031F0005970EEE72DE9F04F8DB00C46DDF85880A0
:1032000016461F46054601F049FA0368049318461E
:10321000FCF7DEFF00230A93D8F80030059007334F
:1032200023F0070303F1080294F818A0D4F800B0C3
:10323000C8F80020D3E90023C4E91223D4E9128995
:1032400029F000430793CDF818804FF0FF32A54BCB
:10325000DDE90601FDF766FC002840F0FB814FF038
:10326000FF32A04BDDE90601FDF73EFC002840F0EF
:10327000F1810022002340464946FDF72BFC10B1A6
:103280002D2384F84330984B984ABAF1470F8CBFEE
:103290009046984603232BF00402236122604FF0EE
:1032A0000009009733460BAA2146284600F0E2F9B0
:1032B000013040F093804FF0FF300DB0BDE8F08F4B
:1032C00061684B1C4BF480623FD10623636000238E
:1032D00003930AAB029309AB009349EC108B0DF1F9
:1032E00023032260CDF804A061682846FFF7ECFEB6
:1032F0000AF0DF03472B804609D1099BD81C02DB6B
:103300006268934257DDAAF1020A5FFA8AFABAF1BB
:10331000650F099934D80139524604F150000991DA
:10332000FFF733FF0A9A8318012A8146236102DCE2
:103330002268D10701D5013323619DF82330002B8A
:10334000AFD02D2384F84330ABE7BAF1670F02D03A
:10335000BAF1470FBBD189B1002303930AAB0293A3
:1033600009AB009349EC108B2260CDF804A00DF15D
:1033700023032846FFF7A8FE8046BEE70123A5E702
:10338000BAF1660F19D1002963680CDD216113B908
:103390002268D20702D501330B442361099BA36540
:1033A0004FF00009C9E713B92268D00701D50233ED
:1033B000F3E70123F1E74FF0670A099B0A9A93426A
:1033C00005DB22682361D107E8D50133E5E7002B4F
:1033D000D4BFC3F1020301231344DEE723685A0577
:1033E00007D42369424631462846B84701302BD1DD
:1033F00061E7BAF1650F40F2E28000220023D4E9D0
:103400001201FDF75DFB00283CD00123384A31460C
:103410002846B84701303FF44EAF0A9B099A9A42BA
:1034200002DB2368D8070FD5059B049A314628464E
:10343000B84701303FF43FAF4FF0000804F11A09DC
:103440000A9B013B984512DB23689B0709D54FF087
:10345000000804F11909E3680B9A9B1A9845C0F219
:10346000EE80E0680B9B9842B8BF184625E7012321
:103470004A4631462846B84701303FF41CAF08F1B0
:103480000108DDE7099B002B34DC0123184A314693
:103490002846B84701303FF40EAF099B23B90A9B79
:1034A00013B92368D907CFD5059B049A314628461E
:1034B000B84701303FF4FFAE4FF0000904F11A0A9B
:1034C000099B5B42994501DB0A9B8BE7012352462E
:1034D00031462846B84701303FF4EDAE09F1010905
:1034E000EEE700BFFFFFEF7F3C630008406300088A
:1034F0004C6300080A9AA36D9A42A8BF1A46002A94
:10350000914638DC04F11A034FF0000B29EAE979FF
:103510000693D4F858A0AAEB09039B4533DB0A9B1A
:10352000099A9A423ADB2368DA0737D40A9B099949
:10353000A3EB0A02A3EB01099145A8BF9146B9F19B
:10354000000F33DC4FF0000829EAE97904F11A0A88
:10355000099A0A9B9B1AA3EB09039845BFF674AF1F
:103560000123524631462846B84701303FF4A3AE06
:1035700008F10108ECE71346314642462846B847B1
:103580000130BFD197E60123069A31462846B84755
:1035900001303FF490AE0BF1010BBAE7059B049AA2
:1035A00031462846B8470130C0D184E64B4608EB87
:1035B0000A0231462846B8470130C3D17BE60A9A51
:1035C000012A01DCDB0737D5012342463146284674
:1035D000B84701303FF46FAE059B049A3146284648
:1035E000B84701303FF467AE00220023D4E912014E
:1035F000FDF766FA58B14FF0000804F11A0A0A9B69
:10360000013B98450DDB4B4604F15002EBE60A9B6B
:1036100008F10102013B31462846B8470130F2D19A
:1036200049E60123524631462846B84701303FF467
:1036300042AE08F10108E2E701234246EBE701232D
:103640004A4631462846B84701303FF434AE08F1C7
:10365000010800E742464B4640464946FDF762FAFC
:1036600000283FF42DAE014B014A0EE644630008EA
:10367000486300082DE9F04791461F468A680B69A8
:10368000DDF820809342B8BF1346C9F8003091F8A6
:10369000432006460C4612B10133C9F800302368B6
:1036A000990642BFD9F800300233C9F800302568C6
:1036B00015F0060507D104F1190AE368D9F80020CE
:1036C0009B1A9D4229DB94F843302268003318BFCF
:1036D000012392062ED404F1430239463046C047F6
:1036E000013021D02368E568D9F8002003F00603F3
:1036F000042B08BFAD1AA36822690CBF25EAE57543
:1037000000259342C4BF9B1AED184FF000091A34EC
:103710004D451BD10020BDE8F087012352463946B4
:103720003046C047013003D14FF0FF30BDE8F0878D
:103730000135C2E7E1185A1C302081F843002244C9
:1037400094F8451082F843100233C4E7012322465F
:1037500039463046C0470130E6D009F10109D7E7C4
:103760002DE9F04317460A7E85B06E2A9846064634
:103770000C460C9B01F1430E00F0BC801AD8632A62
:103780002ED00AD8002A00F0C880582A00F08A807B
:1037900004F1420584F842202AE0642A01D0692A13
:1037A000F6D121681A6811F0800F23D0111D19601D
:1037B000136827E0732A00F0B48008D86F2A2AD053
:1037C000702AE5D10A6842F020020A6003E0752AF7
:1037D00021D0782ADCD1782284F845206E4964E033
:1037E0001A6801F14205111D1960136884F842300E
:1037F0000123A3E011F0400F02F104011960D7D0BA
:10380000B2F90030002B03DA2D225B4284F843200A
:1038100062490A2217E02068196810F0800F03D06F
:10382000081D18600B6806E010F0400F01F104005D
:103830001860F7D00B8859496F2A14BF0A22082252
:10384000002084F843006568A560002DC0F29C80CC
:10385000206820F004002060002B3FD1002D40F0B4
:1038600095807546082A0BD12368DA0708D52369A5
:1038700062689A42DEBF302305F8013C05F1FF354E
:10388000AEEB05032361CDF800803B4603AA214639
:103890003046FFF7EFFE013055D14FF0FF3005B055
:1038A000BDE8F08381F845203C492268186812F091
:1038B000800F00F104051D6001D0036802E0550689
:1038C000FBD50388D00744BF42F0200222601BB919
:1038D000226822F0200222601022B1E77546B3FB75
:1038E000F2F002FB1033CB5C05F8013D03460028E3
:1038F000F5D1B7E708681A68496910F0800F04D05D
:10390000101D18601368196007E010F0400F02F1F5
:10391000040018601368F6D01980002323617546EF
:10392000B1E71A68111D1960156862680021284600
:10393000FCF756FC08B1401B6060636823610023FC
:1039400084F843309FE723692A4639463046C0470A
:103950000130A2D023689B0707D5002504F119097F
:10396000E368039A9B1A9D4205DBE068039B98423B
:10397000B8BF184693E701234A4639463046C04748
:1039800001308AD00135EBE7002BA7D10B7884F802
:10399000423004F1420565E75F6300084E630008AA
:1039A0000EB400B59CB04FF402711DABADF814100D
:1039B000029006906FF000410A48049107914FF67B
:1039C000FF7153F8042BADF816100068019302A99B
:1039D00001F06CFA029B00221A701CB05DF804EB37
:1039E00003B070470C0000202DE9F74F03690C6904
:1039F0009C42804600F38280013C01F114074FEAAB
:103A0000840E00F1140657F8245056F8240006EBF3
:103A10000E03013507EB0E090193B0FBF5F595B3E5
:103A20004FF0000A3846B446D34650F8042B93B200
:103A300005FB03A34FEA134A9BB2ABEB0303120C43
:103A4000BCF800B005FB02A213FA8BF34FEA124A4E
:103A50001FFA82FBDCF80020CBEB124202EB234280
:103A60009BB243EA024381454FEA224B4CF8043BA8
:103A7000DBD256F80E3033B9019B043B9E421A4606
:103A800030D3C8F81040404601F033F8002825DB59
:103A9000013530464FF0000E57F8042BD0F800C027
:103AA00093B2AEEB0303120C13FA8CF3C2EB1C427D
:103AB00002EB23429BB243EA0243B9454FEA224E4E
:103AC00040F8043BE8D256F8242006EB84032AB9D8
:103AD000043B9E421A460BD3C8F81040284603B058
:103AE000BDE8F08F1268043B002ACAD1013CC5E74B
:103AF0001268043B002AEFD1013CEAE70020EEE720
:103B00002DE9F04F57EC106B97B0CDE90067466A8E
:103B1000079104460A920F93209D3EB9102000F0B1
:103B2000CBFD6062466086600660C660636A1968A5
:103B300051B15A684A60012393408B60204600F0DF
:103B400002FE636A00221A60019B002BBFBF0123A3
:103B50002B60019B23F00043B2BF019300232B6035
:103B6000DDF80480A84B33EA08031BD10F9A42F218
:103B70000F731360009B23B9C8F31300002800F0F3
:103B80007885219B53B9A14B21E0A14B02930833C7
:103B9000219A1360029817B0BDE8F08F9B4B0293F7
:103BA0000333F5E7DDE9006700220023304639469C
:103BB000FCF786FF814660B10F9A01231360219BB9
:103BC000002B00F05385934B219A1360013B029325
:103BD000E0E714AA15A947EC106B204601F001F8A4
:103BE000C8F30A558246002D7ED0C7F3130343F075
:103BF0007F51304641F44011A5F2FF35CDF8489091
:103C00000022854BFCF740FB79A3D3E90023FCF7A6
:103C1000EFFC79A3D3E90023FCF738FB06462846DE
:103C20000F46FCF77FFC76A3D3E90023FCF7E0FC0A
:103C300002460B4630463946FCF728FB06460F463F
:103C4000FCF786FF00228346002330463946FCF706
:103C500041FF58B15846FCF765FC02460B4630461A
:103C60003946FCF72DFF08B90BF1FF3BBBF1160FEE
:103C700059D86A4901EBCB01DDE90023D1E9000104
:103C8000FCF746FF002850D00BF1FF3B00230E93BA
:103C9000149B5D1B6B1E069345BFC5F10103059385
:103CA000002300234CBF06930593BBF1000F3EDBBE
:103CB000069BCDF82CB05B44069300230893079B2A
:103CC000092B00F2AF80052BC4BF043B0793079B71
:103CD000A3F10203CCBF00260126032B00F2AE8025
:103CE000DFE803F082842F77159B149D1D4405F2B5
:103CF0003243202B11DD009A05F21240C3F140033C
:103D000022FA00F008FA03F31843FCF7FBFB012347
:103D1000A1F1F871013D129372E7C3F12000009BFD
:103D200003FA00F0F1E70123B1E70E90B0E7059B3D
:103D3000A3EB0B030593CBF10003089300230B9334
:103D4000BDE7012309930A9B002B7ADD04930393BB
:103D5000656A00226A60042101F114029A4275D951
:103D60006968204600F0BBFC636A28601B68029308
:103D7000039B0E2B00F2E580002E00F0E2809DED0B
:103D8000007BBBF1000F8DED0C7B74DD234A0BF043
:103D90000F034FEA2B1602EBC303F006D3E90089A9
:103DA00059D51F4B51EC170BD3E90823FCF74AFDFB
:103DB000CDE9000106F00F060325194F002E4CD166
:103DC00042464B46DDE90001FCF73CFDCDE9000130
:103DD0006AE0012309930A9B5B4404930133012B9E
:103DE0000393B8BF0123B3E70023ABE70023F1E758
:103DF00061436F63A787D23FB3C8608B288AC63FF1
:103E0000FB799F501344D33F0000F07F7963000893
:103E1000706300084D6300080000F83FA8630008C5
:103E20008063000801260023079309964FF0FF33B3
:103E300004930393002212230A9289E70123099332
:103E4000F4E70123049303931A46F5E76A68013205
:103E50006A60490080E70225AFE7F10708D54046D0
:103E60004946D7E90023FCF7C3FB01358046894664
:103E700076100837A2E700F09D80CBF100069F4B3B
:103E80009F4F06F00F0203EBC203D3E90023DDE9E5
:103E90000C01FCF7ADFBCDE9000136110023022532
:103EA000002E7CD1002B91D10E9B002B00F0848042
:103EB000DDE900890022934B40464946FCF70AFEA3
:103EC000002879D0039B002B76D0049B002B34DD97
:103ED00000228D4B40464946FCF78AFBCDE90001A4
:103EE000049E0BF1FF3701352846FCF71BFBDDE98B
:103EF0000023FCF77DFB0022844BFCF7C7F98046CA
:103F0000A1F15079002E5AD10022814BDDE9000148
:103F1000FCF7BAF942464B46CDE90001FCF7F8FD43
:103F2000002840F09B82424609F10043DDE9000190
:103F3000FCF7D0FD002840F08F82DDE90C23CDE9AD
:103F40000023159B002BC0F25081BBF10E0F00F334
:103F50004C816A4B03EBCB03D3E900890A9B002B0E
:103F600080F2DA80039B002B00F3D68040F073824E
:103F70000022674B40464946FCF73AFBDDE9002347
:103F8000FCF7BCFD039E3746002840F04A82029BA6
:103F9000029A5D1C312313700BF1010B45E2F2070D
:103FA00005D5D7E90023FCF723FB01350123761063
:103FB000083775E7022577E75F46039E94E7029A84
:103FC0004E4B32441392099A711E002A48D003EBDB
:103FD000C103D3E9002300204E49FCF733FC4246DD
:103FE0004B46FCF751F9029D80468946DDE9000108
:103FF000FCF7AEFD0646FCF795FA02460B46DDE9F6
:104000000001FCF741F9303605F8016B42464B469A
:10401000CDE90001FCF75EFD002865D1DDE9002354
:1040200000203849FCF730F942464B46FCF752FD78
:10403000002840F0BA80139B9D423FF47EAF0022DF
:10404000314B40464946FCF7D3FA00228046894668
:104050002D4BDDE90001FCF7CBFACDE90001C5E706
:1040600003EBC10142464B46D1E90001FCF7C0FA1F
:10407000CDE91001029DDDE90001FCF769FD06466E
:10408000FCF750FA303602460B46DDE90001FCF73A
:10409000FBF805F8016B139BAB42804689464FF055
:1040A000000225D11B4BDDE91001FCF7EFF80246B9
:1040B0000B4640464946FCF72BFD002875D1DDE94B
:1040C000102300201349FCF7DFF802460B46404658
:1040D0004946FCF7FFFC00283FF42FAF15F8013CE0
:1040E000302B05F1FF3201D0BB464DE01546F5E718
:1040F000054BFCF77DFACDE90001BCE7A863000899
:10410000806300080000F03F0000244000001C40D5
:10411000000014400000E03FDDE90067029D4246D8
:104120004B4630463946FCF78DFBFCF711FD0090FD
:10413000FCF7F8F942464B46FCF75AFA02460B46A2
:1041400030463946FCF7A0F8009E039F303605F84C
:10415000016B029EAE1BB74202460B4638D1FCF7FC
:1041600095F806460F4602460B4640464946FCF780
:10417000B1FCC8B932463B4640464946FCF7A0FC74
:1041800010B1009BDB070FD45146204600F0DBFA4C
:1041900000230F9A2B700BF101031360219B002B5E
:1041A0003FF4F8AC1D60F5E45F4615F8012C392AA0
:1041B00005F1FF3306D1029A9A4207D130231370DA
:1041C000013713461A7801321A708DE71D46ECE765
:1041D0000022A44BFCF70CFA0022002306460F46EF
:1041E000FCF76EFC00289AD0CEE7099A002A00F06E
:1041F000CD80079A012A00F3AF80129A002A00F0BE
:10420000A78003F23343089E059D059A1A44059240
:10421000069A01211A442046069200F034FB074614
:10422000002D0CDD069B002B09DDAB42059AA8BFD3
:104230002B46D21A0592069AED1AD31A0693089BBA
:10424000F3B1099B002B00F0A580002E10DD39464C
:104250003246204600F0AEFB524601460746204655
:1042600000F01AFB51468046204600F06CFAC24628
:10427000089B9A1B04D05146204600F09BFB8246C7
:104280000121204600F0FFFA0B9B002B064640F36D
:1042900083801A460146204600F08CFB079B012BC9
:1042A00006467CDD4FF00008336906EB830318698E
:1042B00000F09BFAC0F12000069B184410F01F008C
:1042C00000F09680C0F12003042B40F38780059B0B
:1042D000C0F11C0003440593069B05440344069368
:1042E000059B002B05DD51461A46204600F0B0FB29
:1042F0008246069B002B05DD31461A46204600F01B
:10430000A7FB06460E9B002B74D03146504600F0AA
:10431000F0FB00286EDA002351460A22204600F006
:1043200029FA099B0BF1FF3B8246002B00F0A88184
:10433000002339460A22204600F01CFA049B002B79
:10434000074600F3C880079B022B40F3C48059E066
:10435000149BC3F1360356E7039B5E1E089BB342D2
:10436000BFBF089B0896F21A0B9BB6BF9B189E1BFB
:104370000B93039BB8BF0026002BB9BF059B039A84
:10438000059D039BBCBF9D1A00233EE7089E059D2B
:10439000099F45E7089A6EE7079B012B19DC009BF4
:1043A000BBB9019BC3F313039BB9019B23F00043EB
:1043B0001B0D1B0583B1059B01330593069B013340
:1043C00006934FF001080B9B002B7FF46DAF01208B
:1043D00072E74FF00008F6E79846F4E780D0059AB8
:1043E0001C331A440592069A1A441D44134676E774
:1043F0000346F4E7039B002B36DC079B022B33DDDF
:10440000039B0493049B63B931460522204600F0C8
:10441000B1F901460646504600F06BFB00283FF715
:10442000B6AD0A9B029D6FEA030B0023039331464E
:10443000204600F088F9002F3FF4A6AE039B2BB175
:10444000BB4203D01946204600F07DF9394620468C
:1044500000F079F998E600263746E2E7BB46374692
:1044600095E500BF00002440099B93BB039B049388
:10447000029D31465046FFF7B7FA00F1300905F8C2
:10448000019B029B049AEB1A9A4200F3DC80029B88
:10449000012AACBF9B180133984600230393514671
:1044A0000122204600F0D4FA3146824600F021FB7A
:1044B000002800F38D8003D119F0010F40F08880AF
:1044C000454615F8013C302B05F1FF32AFD11546BA
:1044D000F7E7039B0493002D05DD39462A46204665
:1044E00000F0B6FA0746B8F1000F4CD079682046C4
:1044F00000F0F5F83A6902320546920007F10C0126
:104500000C3000F0E1F801222946204600F0A0FA24
:10451000009BDDF80880039703F00103074605932D
:1045200031465046FFF760FA0399054600F130091D
:10453000504600F0DEFA3A4600903146204600F040
:10454000F2FAC368024603BB01460690504600F0EB
:10455000D0FA069A034611462046069300F0F3F877
:10456000069BA3B9079A92B9059A82B9B9F1390F96
:1045700029D0009B002B01DD05F1310908F101056F
:1045800088F8009053E73846C2E70123E3E7009A32
:10459000002A04DB25D1079A1ABB059A0ABB002B17
:1045A000ECDD51460122204600F052FA31468246A7
:1045B00000F09FFA002803DCE0D119F0010FDDD0F4
:1045C000B9F1390FD8D1392388F8003008F1010842
:1045D000454615F8013C392B05F1FF323BD001333C
:1045E00040E0002B08F1010505DDB9F1390FEAD0F3
:1045F00009F10109C4E7029B049A05F8019CEB1A32
:104600009342A8463FF44BAF514600230A2220466E
:1046100000F0B0F8039B0399BB4282464FF00003C1
:104620004FF00A02204604D100F0A4F80390074698
:1046300076E700F09FF8002303900A2239462046CF
:1046400000F098F8F3E7514600230A22204600F0D4
:1046500091F882460DE7029B934205D1029A0BF135
:10466000010B31231370E2E61546B2E7094BFFF761
:10467000AEBA219B002B7FF488AA074BFFF7A7BA9D
:10468000049B002B3FF7F4AE079B022B7FF7F0AEA5
:10469000B8E600BF4C63000870630008044B1B6859
:1046A000186A044B002808BF1846F030704700BF56
:1046B0000C00002070000020024B0146186800F03A
:1046C0003BBB00BF0C00002010B5431E0A449142C2
:1046D00000D110BD11F8014B03F8014FF7E770B599
:1046E000456A04460E463DB91020FFF7E5FF6062BB
:1046F000456085600560C560656AEB6883B1636A83
:10470000DB6853F82600B8B9012101FA06F56A1DE5
:104710009200204600F0B4FA60B1466085600EE079
:1047200021220421204600F0ABFA636AE860DB68CE
:10473000002BE4D1002070BD026843F8262000233E
:104740000361C36070BD70B5446A06460D463CB94E
:104750001020FFF7B1FF7062446084600460C460A1
:104760003DB1736A6A68DB6853F82210296043F828
:10477000225070BD2DE9F0410D691F4606460C46DA
:1047800001F1140E0023DEF8000081B202FB01717A
:104790000F0C000C02FB007089B2013301EB0041E9
:1047A0009D424FEA10474EF8041BECDCD7B1A368DA
:1047B0009D4212DB616830460131FFF790FF2269AC
:1047C000023204F10C01804692000C30FFF77CFFAE
:1047D00021463046FFF7B7FF444604EB8503013519
:1047E0005F6125612046BDE8F081020C120403469A
:1047F000B2B90304102013F07F4F04BF1B0208302E
:1048000013F0704F04BF1B01043013F0404F04BF7E
:104810009B000230002B06DB5B0003D501307047A4
:104820000020E8E720207047036813F007020146E4
:104830000BD0DA0723D4980749BF5B089B080120F7
:104840000B605CBF0B600220704798B2A8B91B0CCC
:10485000102013F0FF0F04BF1B0A08301A0704BF13
:104860001B0904309A0704BF9B080230DA0702D400
:104870005B0806D001300B6070471046E9E7002066
:1048800070472020704710B50C460121FFF727FF25
:1048900001224461026110BD2DE9F74F14460A69F7
:1048A00023699A42B8BF0B468946BCBFA1461C4645
:1048B000D9F81070D4F810A0D9F80830D9F804103D
:1048C00007EB0A069E42C8BF0131FFF708FF00F15F
:1048D000140505EB86082B460022434516D304F148
:1048E000140209F1140102EB8A0301EB870701931B
:1048F000019C944213460CD8002E03DD58F8043D69
:10490000002B54D0066103B0BDE8F08F43F8042BB0
:10491000E3E7B3F800A00432BAF1000F20D0AE46AE
:1049200089464FF0000C59F8044BBEF800B0A3B212
:104930000AFB03B34FEA144BDEF8004063444FEA2E
:10494000144C0AFB0BC404EB13449BB243EA04432C
:104950004F454FEA144C4EF8043BE4D8CEF800C063
:1049600032F8029CB9F1000F1FD02B68AE468C467E
:104970004FF0000ABCF80040BEF802B009FB04B4D6
:10498000A2449BB243EA0A434EF8043B5CF8043B62
:10499000BEF800401B0C09FB034303EB1A436745B9
:1049A0004FEA134AE6D8CEF800300435A0E7013EBE
:1049B000A2E700002DE9F843154612F0030206466F
:1049C0000F4607D0013A214C002354F82220FFF76C
:1049D000D1FE0746AD1035D0746A3CB91020FFF700
:1049E0006BFE7062446084600460C460D6F824800A
:1049F000D8F808404CB940F271213046FFF743FF28
:104A00000023C8F80800044603604FF00008EB07D5
:104A10000AD5394622463046FFF73EFF39468146E1
:104A20003046FFF790FE4F466D100BD0206838B926
:104A3000224621463046FFF72FFF2060C0F8008055
:104A40000446E4E73846BDE8F88300BF7064000818
:104A50002DE9F0470C464FEA621A236949680AEBD0
:104A60000309A3680746164609F10105AB4231DB8D
:104A70003846FFF734FE0022804600F11403114649
:104A800052452ADB20692AEAEA7A04F1140116F079
:104A90001F0203EB8A0301EB800E22D0C2F1200C2F
:104AA00000200E689640304343F8040B51F8040B85
:104AB0008E4520FA0CF0F4D8186008B109F102050F
:104AC000013D3846C8F810502146FFF73CFE4046ED
:104AD000BDE8F08701315B00C8E743F822100132DE
:104AE000CEE7043B51F8042B43F8042F8E45F9D848
:104AF000E6E703690A699B1A30B50CD192001430BD
:104B000014318418114454F8045D51F8042D954271
:104B100003D005D30123184630BDA042F3D3FAE7F2
:104B20004FF0FF33F7E72DE9F0470D4607461146F2
:104B300028461446FFF7DDFF061E08D131463846E9
:104B4000FFF7CDFD012303614661BDE8F087A4BFF7
:104B500023462C4638466168A6BF1D46002601261E
:104B6000FFF7BDFD2B69C660266905F1140904F144
:104B7000140202EB860709EB830800F114054FF0DD
:104B8000000C52F804AB59F8044B1CFA8AF1A3B29A
:104B9000C91A230CC3EB1A4303EB214389B24FEA32
:104BA000234CC84541EA0343964645F8043BE8D800
:104BB000BE4505D355F8043D8BB10661BDE8F087CD
:104BC0005EF8041B1CFA81F31A1402EB11429BB22B
:104BD00043EA02434FEA224C45F8043BE8E7013E32
:104BE000E8E72DE9F7430E46012159EC108B1546F5
:104BF000FFF775FDC9F30A540746C9F3130334BB25
:104C00000193B8F1000F27D002A840F8088DFFF7F4
:104C10000BFE0099F0B1019AC0F1200302FA03F3F0
:104C20000B43C2407B610192019BBB61002B14BF0F
:104C3000022101213961C4B1A4F233440444346037
:104C4000C0F135002860384603B0BDE8F08343F476
:104C50008013D5E77961E7E701A8FFF7E5FD019B40
:104C60007B61012139612030E5E707EB8103A0F288
:104C7000324030601869FFF7B8FDC0EB4110E1E742
:104C800038B502FB01F4214600F056F8054618B18C
:104C900022460021FEF710FA284638BD38B50546F1
:104CA000002945D051F8043C0C1F002BB8BFE41874
:104CB00000F02CFA1F4A1368104633B96360146081
:104CC0002846BDE8384000F022BAA3420CD921683A
:104CD0006218934204BF1A685B68636004BF52188D
:104CE00022600460ECE713465A680AB1A242FAD97E
:104CF00019685818A0420BD1206801445818824204
:104D00001960DDD1106852685A6001441960D7E714
:104D100002D90C232B60D3E7206821188A4204BFF4
:104D200011685268626004BF091821605C60C7E7BF
:104D300038BD00BF0002002070B5CD1C25F0030572
:104D400008350C2D38BF0C25002D064601DBA94285
:104D500003D90C233360002070BD00F0D7F9234A3B
:104D60001468214691B9224C23681BB9304600F0E3
:104D700091F920602946304600F08CF9431C26D179
:104D80000C233360304600F0C2F9E4E70B685B1B8C
:104D90001AD40B2B0FD90B60CD50CC18304600F035
:104DA000B6F904F10B00231D20F00700C31A1BD035
:104DB0005A42E25070BD8C420DBF63684B6863601D
:104DC000136018BF0C46E9E70C464968CAE7C41CE3
:104DD00024F00304A04205D0211A304600F05AF90D
:104DE0000130CDD02560D9E770BD00BF00020020A2
:104DF000040200202DE9F0478E689E4282460C4650
:104E00009146984635D88A8912F4906F31D025683A
:104E100009696F1A6569022305EB450595FBF3F5F2
:104E200008F101033B449D4238BF1D46530531D56F
:104E30002946FFF781FF064650B90C23CAF8003017
:104E4000A38943F04003A3814FF0FF30BDE8F08712
:104E50003A462169FFF738FCA38923F4906343F0B5
:104E60008003A381266165613E44ED1B2660A56039
:104E70004646464528BF464632464946206800F029
:104E80002BF9A3689B1BA36023681E4426600020A7
:104E9000BDE8F0872A4600F03BF906460028E1D13C
:104EA00021695046FFF7FAFEC7E700002DE9F04FF1
:104EB0009DB0804603938B891C060D4616460FD580
:104EC0000B696BB94021FFF737FF2860286128B9CB
:104ED0000C23C8F800304FF0FF30C5E040236B6171
:104EE0000023099320238DF8293030238DF82A30B0
:104EF0004FF0010B37463C4614F8013B002B3CD1E8
:104F0000B7EB060A0BD05346324629464046FFF718
:104F100071FF013000F0A380099B534409933B7853
:104F2000002B00F09C8000234FF0FF320493079386
:104F3000059206938DF853301A9305222178504834
:104F4000FBF74EF9671C049BD8B9D90644BF202251
:104F50008DF853201A0744BF2B228DF85320227856
:104F60002A2A16D0079A00210A20274601343B78C6
:104F7000303B092B51D9C9B111E0252BC0D02746B0
:104F8000B9E73F4A801A0BFA00F0184304903C46F8
:104F9000D3E7039A111D12680391002A01DB0792DF
:104FA00004E0524243F00203079204933B782E2B15
:104FB0000ED17B782A2B07F1010132D1039B1A1DF8
:104FC0001B680392002BB8BF4FF0FF3302370593E5
:104FD0002C4C397803222046FBF702F938B14023E4
:104FE000001B03FA00F0049B034304930137397854
:104FF00025488DF8281006227E1CFBF7F1F80028C2
:1050000035D0224BFBB9039B073323F0070308334A
:105010000393099B4B4409936CE700FB0232012187
:10502000A3E70023059318460A240F4601313A7876
:10503000303A092A03D9002BCAD00590C8E704FBEF
:1050400000200123F1E703AB00932A46104B04A98B
:105050004046FEF7CFF8B0F1FF3F8146D9D1AB898A
:105060005B063FF538AF09981DB0BDE8F08F03AB84
:1050700000932A46064B04A94046FEF771FBEAE777
:105080007C6400088264000886640008F53100082A
:10509000F54D000838B5064C002305460846236048
:1050A00001F0DCF8431C02D1236803B12B6038BD4A
:1050B0009003002082B001B901A942B14BB113782D
:1050C0000B601278101C18BF012002B07047104608
:1050D000FBE76FF00100F8E7884210B501EB02032F
:1050E00003D8421E99420CD110BD9842F9D28118C2
:1050F000D21AD34200D110BD13F8014D01F8014D71
:10510000F7E711F8014B02F8014FEBE770477047E2
:10511000F8B5074614460E4621B91146BDE8F840D9
:10512000FFF70ABE22B9FFF7B9FD25462846F8BDAC
:1051300000F021F884420FD921463846FFF7FCFDE4
:1051400005460028F2D031462246FFF7BDFA314627
:105150003846FFF7A3FDE9E73546E7E749B1FF2AFF
:1051600085BF8A2303600A704FF0FF3098BF01208B
:1051700070470846704751F8040C0028A0F104005D
:10518000BCBF0B58C01870472DE9F04F2DED048BB4
:105190008DB057EC106B55EC114B00F06DF9AE4B28
:1051A000B0EE408AF0EE608A93F90090B9F1FF3FCB
:1051B00098465FD022462B4620462946FBF7B2FC94
:1051C0008346002856D132463B4630463946FBF7E7
:1051D000A9FC0190E8B10022002320462946FBF7F4
:1051E0006FFC002846D0012302939C4B03939C4BF9
:1051F000CDF828B00022B9F1020FCDE90467CDE95E
:105200000645CDE9082333D002A800F006FF48BBCD
:105210005EE04FF0000A4FF0000B52465B4630460E
:105220003946FBF74DFC4BEC19AB002855D05246E4
:105230005B4620462946FBF743FC804618B3012312
:105240000293864B0393019B0A93CDE90467CDE952
:105250000645CDE908ABB9F1000FD5D0804B00224F
:10526000CDE908230A9B1BB100F0F2FF0A9B036003
:105270009DED088BB0EE480AF0EE680A0DB0BDEC6B
:10528000048BBDE8F08F45EC104B00F0BEFE00280B
:10529000F0D052465B4620462946FBF71BFC00280F
:1052A000E8D0012302936D4B03936B4BCDF828801C
:1052B00093F90030CDE90467CDE9064513B9CDE98E
:1052C00008ABA1E767490020CDE90801022B9BD17B
:1052D00000F0BEFF21230360C4E7B0EE480AF0EE01
:1052E000680A00F092FE0190002840F08A8047ECA6
:1052F000106B00F08AFE002800F0838045EC104B14
:1053000000F083FE00287CD053EC182B18EE100A16
:105310001946FBF707FC98F90090504BB0B10122F9
:105320000393019B02920A93CDE90467CDE90645F8
:10533000B9F1000FC3D052465B4650465946FBF7C1
:1053400081FAB9F1020FCDE90801C0E70322029208
:1053500003930A90CDE90467CDE90645B9F1000F42
:105360002CD1414B4FF06042CDE9082330465246E4
:105370005B463946FBF7AEFB002866D000223B4B6C
:1053800020462946FBF734F904460D4645EC104B00
:1053900000F04EFE204653EC102B2946FBF790FB05
:1053A00020B9334B4FF06042CDE9082398F9003023
:1053B000022B4AD100F04CFF22238CE72D4B002218
:1053C000CDE90823304652465B463946FBF782FB5F
:1053D0000028EBD00022254B20462946FBF708F990
:1053E00004460D4645EC104B00F022FE204653ECDF
:1053F000102B2946FBF764FB0028D7D10022194B5C
:10540000D2E70022002351EC180BFBF759FB0028D0
:105410003FF430AF47EC106B00F0F7FD00283FF48D
:1054200029AF45EC104B00F0F0FD00283FF422AF0F
:1054300004230293094B039300230A93CDE90467E5
:10544000CDE906458DED089BB0E702A800F0E5FD2B
:1054500000287FF407AFADE7DC0100209865000865
:105460000000F03F0000F0FFFFFFEF470000E03FCB
:10547000FFFFEFC70000F07F2DE9F04F91B08DEDF9
:10548000001B9DE8040257EC106B29F0004858EA15
:10549000020310EE10AA3D4600F0BD84784B27F0C1
:1054A00000449C4209DC03D13EB9A0450DDC01E07B
:1054B000984502DC98450ED16AB104F1404404F5E8
:1054C000801454EA0A0300F0A6846E4811B0BDE8C7
:1054D000F04F00F0A5BD002D53DA6B4B98454DDC25
:1054E000A3F1547398454CDD4FEA2853A3F2FF33E0
:1054F000142B26DDC3F1340322FA03F101FA03F37E
:105500009A423ED101F00101C1F1020B002A5BD1A8
:105510005B4B984524D104F1404303F5801353EAD3
:105520000A0300F07884594B9C422DDDB9F1000F3D
:1055300080F275840020002141EC100B11B0BDE811
:10554000F08F002A3ED1C3F1140348FA03F101FAA7
:1055500003F3984540F06B8401F00101C1F1020BA7
:105560004B4B984518D1B9F1000F80F25C84484943
:1055700032463B460020FBF765F9DDE74FF0020BB2
:10558000C4E74FF0000BC1E7B9F1000FD2DA9DE894
:10559000090003F10041CFE7B9F1804F06D132464F
:1055A0003B4610461946FBF723F8C5E7394B9945AA
:1055B0000AD1002D08DB47EC106B11B0BDE8F04FAD
:1055C00000F06CBC4FF0000B47EC106B00F016FDC8
:1055D00051EC100BBAF1000F27D124B12C4B25F060
:1055E00040429A4221D1B9F1000F05DA02460B463A
:1055F00000202749FBF726F9002D9DDA04F14044ED
:1056000004F5801454EA0B0308D102460B461046F9
:105610001946FAF739FE02460B46ACE7BBF1010F1B
:105620008AD101F10043194686E7ED0F6B1E0D93F9
:105630005BEA030302D132463B46E8E7164B984546
:1056400040F3FE8003F1047398450ADD0F4B9C4242
:105650000DDCB9F1000FBFF66DAF07A3D3E900234E
:105660009FE70E4B9C42F4DD094B9C4218DDB9F1DB
:10567000000FF2DC5EE700BF9C7500883CE4377EDB
:105680000000F07FEC620008FFFF3F43FFFFEF3FA9
:105690000000F03F0000E03F0000E041FEFFEF3F70
:1056A0000022634BFAF7F0FD55A3D3E9002304462B
:1056B0000D46FAF79DFF54A3D3E9002306460F4693
:1056C00020462946FAF794FF0022CDE90201594B02
:1056D00020462946FAF78CFF02460B464CA1D1E939
:1056E0000001FAF7D1FD22462B46FAF781FF024668
:1056F0000B4600205049FAF7C7FD22462B4680464C
:10570000894620462946FAF773FF02460B46404673
:105710004946FAF76DFF40A3D3E90023FAF768FF83
:1057200002460B46DDE90201FAF7AEFD02460B46E2
:1057300004460D4630463946FAF7A8FD0020CDE96B
:10574000040132463B46FAF79FFD02460B462046CF
:105750002946FAF799FD0D9A0BF1FF3313430646DC
:105760000F4640F0EB819FED2E7BDDE900450024E4
:1057700022462B46DDE900018DED027BFAF784FD20
:10578000DDE90423FAF734FFDDE90023804689468A
:1057900030463946FAF72CFF02460B46404649464A
:1057A000FAF774FD22462B4680468946DDE904015E
:1057B000FAF71EFF0B4604460D4602464946404690
:1057C000CDE90045FAF762FD1C4B994206460F46AB
:1057D0008B4640F3F78201F13F4303F5E0030343B7
:1057E00000F0EA8110A3D3E90023DDE90201FAF712
:1057F000FFFE0DA3D3E90023D5E600BFAFF3008081
:10580000000000604715F73F44DF5DF80BAE543EE3
:10581000555555555555D53FFE822B654715F73FD4
:10582000000000000000F0BF9C7500883CE4377E5B
:105830000000F03F0000D03F0000E03FFFFF8F403E
:10584000B4F5801F4FF0000205DAD34BFAF7D0FE13
:105850006FF034020C462315A3F2FF331344079371
:10586000CE4BC4F3130444F07F559C4245F44015DD
:1058700008DDCB4B9C4240F35E81079B01330793CD
:10588000A5F580154FF0000A4FEACA030C930C9A55
:10589000C44B134493ED007B294653EC172B8DED3D
:1058A0000A7BCDE90801FAF7EFFCDDE90A23064699
:1058B0000F46DDE90801FAF7E9FC02460B46002035
:1058C000B949FAF7BFFFCDE90E0102460B46304653
:1058D0003946FAF78DFECDE90401DDE90434CDE95E
:1058E000023400230293DDE902896D1045F0005572
:1058F00005F50025002205EB8A434046494614463B
:105900001D46FAF775FE02460B4630463946FAF751
:10591000BBFCDDE90A2306460F4620462946FAF776
:10592000B3FC02460B46DDE90801FAF7ADFC42463E
:105930004B46FAF75DFE02460B4630463946FAF70B
:10594000A3FCDDE90E23FAF753FEDDE90423CDE9DC
:10595000080110461946FAF74BFE7BA3D3E9002352
:1059600004460D46FAF744FE79A3D3E90023FAF77B
:105970008DFC22462B46FAF73BFE77A3D3E90023A2
:10598000FAF784FC22462B46FAF732FE74A3D3E9D9
:105990000023FAF77BFC22462B46FAF729FE72A376
:1059A000D3E90023FAF772FC22462B46FAF720FED1
:1059B0006FA3D3E90023FAF769FC224606460F4697
:1059C0002B4620462946FAF713FE02460B46304680
:1059D0003946FAF70DFE424604460D464B46DDE9D0
:1059E0000401FAF753FCDDE90823FAF701FE224629
:1059F0002B46FAF74BFC424606460F464B464046BE
:105A00004946FAF7F5FD0022684BCDE90A01FAF79D
:105A10003DFC32463B46FAF739FC02980D460446F7
:105A200002460B4640464946FAF7E2FD0022804610
:105A300089465E4B20462946FAF726FCDDE90A2313
:105A4000FAF722FC02460B4630463946FAF71CFCB0
:105A5000DDE90423FAF7CCFD224606460F462B4625
:105A6000DDE90801FAF7C4FD02460B463046394627
:105A7000FAF70CFC06460F4602460B4640464946DE
:105A8000FAF704FC02983CA3D3E9002304460D4630
:105A9000FAF7AEFD4246CDE908014B4620462946BD
:105AA000FAF7F2FB02460B4630463946FAF7ECFBB2
:105AB00033A3D3E90023FAF79BFD33A3D3E90023F3
:105AC00006460F4620462946FAF792FD02460B4647
:105AD00030463946FAF7DAFB0C9A354B1344D3E9D2
